:100000000C949E010C94E5010C94E5010C94630999
:100010000C94E5010C94E5010C94E5010C94E501C8
:100020000C94E5010C94E5010C942E1D0C94001E1B
:100030000C94DD150C94E5010C94E5010C94E5019C
:100040000C94E5010C94E5010C94E5010C94E50198
:100050000C94E5010C942A160C94E5010C94E5012E
:100060000C94E5010C94E5010C94E5010C94E50178
:100070000C94E5010C94E5010C94E5010C94E50168
:100080000C94E5010C94E5010C94E5010C94E50158
:100090000C94E5010C94E5010C94E5010C94E50148
:1000A0000C94E5010C94E5010C94E501840C840C9E
:1000B000B60CB60C170E030D170E170E0E0DA70D6E
:1000C000B80DB80DAF0EAF0EC10EC10EB80EC10EF9
:1000D000C10EC10EAF0EAF0EBD0EC10EC10EBD0ED4
:1000E0006D1E941E8C1F941E8C1FE01E031F8C1F00
:1000F0005A1F691F2B0014001A0008001500170072
:10010000E00004001600070009000A00E1001D00DD
:100110001B00060019000500000000000000E300BD
:1001200001512C002A00130012000C0018001C00C2
:10013000340033000F000E000D000B00E500380006
:100140003700360010001100000000000000E6003B
:10015000025128002900000000000000350035028F
:1001600000001E021F02200221022202E100000004
:100170000000380226022702000000000000E30011
:1001800001002C00000000000000250224022302D0
:100190000000310230022F022E002D00E500310058
:1001A00030002F002E022D02000000000000000091
:1001B0000000000029000000240025002600630044
:1001C000E00000002100220023008500E10027005C
:1001D0001E001F0020006700000000000000E30078
:1001E000E2002C0000000000000000000000000001
:1001F000000000004F0052005100500000000000BD
:100200005400550056005700000000000000000098
:10021000010000000403300000002E0343006F00C3
:1002200072006E00650020004B00650079006200DE
:100230006F006100720064002000280063007200FB
:100240006B006200640029000000100366006F006C
:100250006F007300740061006E0000000403090465
:1002600009023B00020100A0FA0904000001030199
:100270000100092111010001224000070581030846
:10028000000A090401000103000000092111010016
:1002900001224F000705820320000A12011001000D
:1002A000000008EDFE6030010001020301050109B4
:1002B00002A10185020901A10005091901290515FD
:1002C00000250195057501810295017503810105E0
:1002D00001093009311581257F95027508810609CC
:1002E000381581257F950175088106050C0A3802AD
:1002F0001581257F950175088106C0C00501090695
:10030000A101050719E029E71500250195087501E8
:1003100081029501750881010507190029FF150063
:1003200026FF009506750881000508190129059525
:100330000575019102950175039101C011241FBE3D
:10034000CFEFDAE0DEBFCDBF04B603FE27C0809159
:10035000100290911102A0911202B0911302873005
:10036000904BA740B04BD1F41092100210921102A2
:10037000109212021092130214BE84B7877F84BFBA
:100380000FB6F894A8958091600088618093600012
:10039000109260000FBEE0E0F8E3099511E0A0E0E4
:1003A000B1E0EEE7F0E402C005900D92A034B10791
:1003B000D9F722E0A0E4B1E001C01D92A031B2075C
:1003C000E1F70E945D1A0C943D200C940000CF933D
:1003D000DF93A7E3B1E04BE351E061E070E08D9182
:1003E000E82FE295EF70F0E021A18F70EB0102C0E1
:1003F000CC0FDD1F8A95E2F7CE019C2F90959223BA
:1004000091A392A1892B82A34A175B0741F7DF9141
:10041000CF91089508950C940A020C940A02209A30
:10042000559A289A5D9A08955D9808955D9A089561
:1004300028980895289A08950E94C6030E94E7010B
:10044000A1E3B1E041E050E08D91E82FE295EF703B
:10045000F0E021A18F70BA0102C0660F771F8A9564
:10046000E2F7CB01962F9095922391A392A1892B2D
:1004700082A371E0A733B70739F70E940F02E8E4BF
:10048000F1E0A0E4B1E011921D9281E0E035F807BF
:10049000D1F70E94A703809350010C9472049F929D
:1004A000AF92BF92CF92DF92EF92FF920F931F9382
:1004B000CF93DF9380910101811103C0C4E0D0E0AC
:1004C00002C0C0E0D0E0AE01405C5E4F7A0187E33D
:1004D000C82E81E0D82E8A01AA24A394B12C25E04D
:1004E000922EFBE3CF16F1E0DF0609F44AC0F601D5
:1004F00081916F01E82FE295EF70F0E021A18F70FC
:10050000A50102C0440F551F8A95E2F7CA01922F38
:10051000982B91A392A18095892382A350EA5A95A2
:10052000F1F7E1E3F1E020E040E050E03191A32F6A
:10053000A295AF70B0E090968C9190E03F7002C0B1
:10054000959587953A95E2F780FD07C0C501042E81
:1005500001C0880F0A94EAF702C080E090E0282BDF
:100560004F5F5F4F4630510509F7F80180818217D0
:1005700019F02083909200010E94E7010F5F1F4F46
:10058000B0CF809100018823B1F0815080930001A9
:10059000811103C0C85BDE4F07C08FE99FE0019760
:1005A000F1F700C0000007C0F70191917F01999316
:1005B0008F5F8430C9F781E0DF91CF911F910F9158
:1005C000FF90EF90DF90CF90BF90AF909F900895F5
:1005D000CF93DF9320910101211103C0C0E0D0E04F
:1005E00002C0C4E0D0E00E94E103009729F0029726
:1005F000B1F40E94180213C00E941A02C85BDE4FB9
:1006000080915C0190915D01A0915E01B0915F01CC
:1006100088839983AA83BB8380E090E002C081E055
:1006200090E0DF91CF9108950E944F0280910101E7
:10063000811103C0E4E0F0E002C0E0E0F0E0E85B3C
:10064000FE4F20E030E080E0D901A45ABE4F4C912B
:100650009191491381E09C932F5F3F4F24303105E6
:1006600099F790915501890F809355010895CF9383
:10067000DF9380915001882309F442C00E944F0209
:1006800080910101811103C0C4E0D0E002C0C0E04C
:10069000D0E0C85BDE4F44E050E0BE0188E591E069
:1006A0000E94EE1F488159816A817B8140935801E5
:1006B0005093590160935A0170935B010E94E802C4
:1006C000892BC9F00E941402809151018F5F8093A1
:1006D0005101863078F180910101811103C0E0E081
:1006E000F0E002C0E4E0F0E0E85BFE4F108211822F
:1006F000128213821FC00E941602109251011AC06A
:100700000E94140380910101811103C080E090E0F8
:1007100002C084E090E0FC01E85BFE4F409158018C
:100720005091590160915A0170915B01408351834E
:10073000628373830E947A0481E0DF91CF910895F0
:10074000E82FF0E0E85BFE4F8081089508958091E6
:100750005201811112C08091D80080618093D8002D
:100760008AE18A95F1F700C08091D90080FD02C02E
:1007700082E001C081E08093520181E090915201BA
:10078000913009F080E008950C94A7030E94C403FF
:10079000809301010E94A703882319F00E94D503CA
:1007A00002C00E94DB037894089563E070E082E069
:1007B00091E00C94110963E070E082E091E00C9408
:1007C0001A090F931F93CF93DF938C0190911B0114
:1007D00080911A01981761F082E090E00E94F3097D
:1007E000EC01892B39F480911A0180931B0102C01E
:1007F000C0E0D0E0012B49F4809153019091540165
:10080000892B19F480E090E002C081E090E00E9422
:10081000F309892B49F48091550180931A011092B4
:1008200054011092530106C081E090E0909354016E
:1008300080935301CE01DF91CF911F910F910895C5
:100840000C9426040C940B0281E0089581E0089535
:1008500008950C9428041F93CF93DF9300D000D009
:100860001F92CDB7DEB749835A836B8330917601EF
:1008700089819A81311114C0662359F0222349F0ED
:100880000E946D13182F682F89819A810E9414137A
:1008900003C00E944013182F69817A81812F04C000
:1008A0000E946D1369817A810F900F900F900F90C5
:1008B0000F90DF91CF911F910C94D904FC01262F4A
:1008C000408151816281738184810C942B04CF9388
:1008D000DF93EC0160E00E945E04BE01DF91CF91E6
:1008E0000C9429040E949214811102C00E943215B6
:1008F0000C9422040C940D0208950C947C0481E065
:1009000008950C947F04CF93C82F0E947D048C2FF0
:100910000E948104CF91089508950E949D0E0E9427
:100920008C042FEF84E39CE0215080409040E1F75D
:1009300000C000000C9450160F931F93CF93DF93C9
:10094000EC0161E00E945E048C01BE010E94200463
:10095000882349F1BE01C8010E941407882319F1B8
:10096000BE01C8010E9455078823E9F0BE01C801F5
:100970000E9480088823B9F08A81882369F00115D4
:100980008CE5180731F00E3D1C4531F40E943215FC
:100990000AC00E948D0407C0CE01DF91CF911F9144
:1009A0000F910C94240480E0DF91CF911F910F915F
:1009B000089520E3829FC0011124FC0126E0729F6C
:1009C000E00DF11D1124E60FF11DEE0FFF1FEC509D
:1009D000FF4F859194910895CF93DF930E94D9049E
:1009E0000E94C905EC018115924580F5C11581E58C
:1009F000D80708F095C0CF3FD10509F0B8F4C03F43
:100A0000D10508F06CC0C53AD10548F4C430D10511
:100A100008F0BBC0C130D10509F4B7C0B4C0CE01E5
:100A2000805E9109089708F4B0C0ADC0C11590E58B
:100A3000D90708F059C0C11520E4D20708F051C009
:100A4000C11580E2D80708F4A0C09DC0C11596E585
:100A5000D90718F5C11525E5D20708F07AC0C115E8
:100A600084E5D80708F070C09E01237033278C2FCF
:100A700086958695C115D34508F057C0C1E0D0E0F2
:100A800002C0CC0FDD1F2A95E2F720E2829FC00151
:100A90001124C82BD92BDC6878C0C1152AE5D207F0
:100AA00078F4C11589E5D80708F05DC0C11598E54F
:100AB000D90708F468C0DC2FCC27C06FD06A65C0A6
:100AC000CE0190568115904208F05DC08D2F8F7138
:100AD0000E945D06DD27D0628F71D82B56C0D0658D
:100AE00054C0DF70D06A51C0CE0174E096958795EE
:100AF0007A95E1F783709C2F937021E030E002C07B
:100B0000220F331F9A95E2F73C68382BCF70C695B9
:100B1000C69580E2C89FE0011124C22BD32B35C0BB
:100B2000DC2FCC27C16FD06A30C0C1E0D0E002C05A
:100B3000CC0FDD1F2A95E2F720E2829FC00111242D
:100B4000C82BD92BDA6821C0DC2FCC27C46FD06A20
:100B50001CC08C2F0E945D068F71C82FD0E0DC2F47
:100B6000CC27D06212C08C2F8F700E945D0694E05B
:100B7000D695C7959A95E1F7CF70D0E0DC2FCC27BA
:100B8000D069C82B02C0C0E0D0E0CE01DF91CF9188
:100B900008958238910569F1B0F48133910509F423
:100BA0006DC048F48932910509F463C08A32910519
:100BB00009F469C008958533910509F455C0893356
:100BC0009105B9F00895833E910569F138F4803EAE
:100BD0009105B1F0823E910509F10895863E910597
:100BE000A9F1873E9105B9F1843E910509F064C0F1
:100BF00023C02091010220FD4FC021FD4DC008956A
:100C00008091010280FD44C08091020280FF44C0B7
:100C10008091010284FD42C083EE4DC080910102AB
:100C200082FF38C0F5CF8091010282FD33C08091F0
:100C3000020280FD31C0ECCF8091020281FF32C000
:100C40008091010284FD2AC087EE35C080910102A7
:100C500083FF26C0F5CF8091010283FD21C08091E2
:100C6000020281FD1FC0ECCF8091010285FD1CC0F6
:100C70001DC08091010285FD19C016C0809101023E
:100C800086FD16C017C08091010286FD13C010C0FA
:100C900089E311C082EE0FC080EE0DC080E00BC072
:100CA00086EE09C084EE07C089E205C085E303C073
:100CB0008AE201C081E390E008959091010292FFE1
:100CC0000DC0282F2871283019F4877F846006C052
:100CD000282F2471243011F48B7F886093FF0DC07E
:100CE000282F2871283119F4877E846106C0282FA7
:100CF0002471243111F48B7E88612091020220FF3F
:100D00000DC0382F3871383019F4877F816006C0E4
:100D1000382F3171313011F48E7F886021FF0DC082
:100D2000282F2871283119F4877E816106C0282F69
:100D30002171213111F48E7E886194FD877E0895A2
:100D40000F931F93CF93DF93C62FD42F122FFC0145
:100D500082818823C9F0609362010E940F169093EC
:100D600061018093600180E28C0F883008F057C0E9
:100D7000C77081E001C0880FCA95EAF7DF91CF9173
:100D80001F910F910C943C0C80916201681330C04C
:100D900080916001909161010E941B16883C910531
:100DA00038F500E20D0FCD17B9F080E28C0F8830D6
:100DB00040F4C77081E001C0880FCA95EAF70E942D
:100DC000430C083028F581E09D2F977001C0880FF3
:100DD0009A95EAF70E943C0C812F0E94290C08305A
:100DE000F0F4D77081E001C0880FDA95EAF70AC005
:100DF00080E28C0F883098F4C77081E001C0880FC2
:100E0000CA95EAF7DF91CF911F910F910C94430C93
:100E1000812FDF91CF911F910F910C94290CDF91BD
:100E2000CF911F910F9108959C01CB01233F4CE579
:100E30003407F9F078F4283DFCE53F07B9F0293D87
:100E40004CE5340711F1273D3C4531F526E241EEF2
:100E500061EE1EC0253FFCE53F0799F070F0263F8C
:100E60003C45D1F427E245EE66EE12C027E245EE9E
:100E70000EC026E241EE60EE0BC027E245EE64EEC6
:100E800007C026E241EE62EE03C028E241E065EED3
:100E90000E94A00680E00895FC018281882319F059
:100EA00010926201089581E00895CF93DF93EC01E1
:100EB000FB018281882309F41FC1C230FCE5DF07F2
:100EC00008F41BC1C6319CE5D90738F09E012A5FA2
:100ED0003C452930310508F010C10E94A5149093BB
:100EE000020280930102C031ECE5DE0709F4C3C0C1
:100EF00008F041C0C8308CE5D80709F49AC0F0F476
:100F0000C430ECE5DE0709F487C068F4C2308CE534
:100F1000D80709F477C0C330DC4509F0E3C08091FD
:100F20000102826076C0C630ECE5DE0709F46EC0CF
:100F300008F07BC08091010288606BC0CC308CE5EA
:100F4000D80709F485C068F4CA30ECE5DE0709F477
:100F500074C008F079C00E949D0E809101028068E3
:100F600058C0CE308CE5D80709F476C008F07FC0B1
:100F7000809101028BC0CB3FECE5DE0709F44FC046
:100F800018F5C3318CE5D80709F47DC078F4C13178
:100F9000ECE5DE0709F473C0C231DC4509F0A2C0FC
:100FA0000E949D0E809101028F7733C0C5318CE580
:100FB000D80709F472C008F486C0CA3FDC4509F0BE
:100FC00091C0809102023EC0CF3FFCE5DF0709F4EB
:100FD0005FC058F4CD3F9CE5D90709F444C008F43C
:100FE0003FC08091020282602DC0C130FDE5DF0765
:100FF00009F475C008F45DC0C230DD4509F072C067
:1010000080E06EC080910102816003C08091010286
:1010100080618093010266C08091010211C08091BD
:1010200002028260809302025DC0809101028062B0
:10103000F0CF809101028064ECCF80910102886042
:101040008460E7CF8160EECF809101028E7FE1CF97
:10105000809101028D7FDDCF80910102877FD9CF02
:101060008091020218C0809102028D7FDBCF8091B7
:1010700001028F7ECECF809101028F7DCACF8091F9
:1010800001028F7BC6CF80910102877F8B7FC1CF0A
:10109000809102028D7F8E7FC5CF8091010282FBFD
:1010A000222720F991E0922790FB82F990FB83F9A7
:1010B000B0CF80910202982F909591708E7F892BEE
:1010C00090FB81F9AFCF0E949D0E8091010287FBBA
:1010D000222720F991E0922790FB87F99ACF81E0AF
:1010E0000E94341580910102909102020E94B61470
:1010F0000E949D0E80E001C081E0DF91CF910895B4
:10110000CF93DF9386319C4541F5EB010E94EE13AE
:10111000982F8A8120911C0130911D01882379F03C
:101120009A7A81E009F480E080936301911102C012
:1011300069E201C065E3C9010E947B150AC0809184
:101140006301811102C069E201C065E3C9010E9427
:101150007D150E942F1480E001C081E0DF91CF91C6
:1011600008958EE14A9B02C08150E1F74A9BFECF71
:1011700008955A9880E28A95F1F75A9A0895FC01E9
:101180002AE02A95F1F790E020E080E031E0261790
:1011900079F040E14A95F1F7880F4A9B02C08160DF
:1011A000932700C0000040E14A95F1F72F5FEFCF91
:1011B00020E12A95F1F729B100C0000030E13A950D
:1011C000F1F722FB222720F992272081920F9083AA
:1011D0000895EF92FF920F931F93CF93DF931F9287
:1011E000CDB7DEB719828C017C01E60EF11C0E151D
:1011F0001F0559F00E94B10868E0CE0101960E94D7
:10120000BF08F80181938F01F2CF81E0998191119C
:1012100080E00F90DF91CF911F910F91FF90EF90A1
:101220000895909366018093650160936401529ADA
:101230005A9A0895909366018093650160936401C2
:1012400052985A9AEA9AE9E6F0E080818F7C80838E
:101250000895615091E001C0990F6A95EAF720E086
:1012600031E0992361F0492F482319F05A9A232736
:1012700001C05A9840E24A95F1F79695F2CF2223A1
:1012800011F05A9A01C05A9880E28A95F1F75A985B
:101290000895FF920F931F93CF93DF93EC018C017E
:1012A000060F111DC017D10741F0F9900E94B9082F
:1012B00068E08F2D0E942909F5CFDF91CF911F9112
:1012C0000F91FF9008951F920F920FB60F92112465
:1012D0000F931F932F933F934F935F936F937F933E
:1012E0008F939F93AF93BF93EF93FF93CF93DF932E
:1012F0001F92CDB7DEB719820E94B10867E0CE0118
:1013000001960E94BF08382F369536953695932F53
:1013100096959570232F2570920F292F23709695FF
:1013200096958770920F891348C08981811145C0B5
:1013300080916401831708F440C080E18A95F1F739
:101340005A9A529AA2E0AA95F1F700C0009165015D
:1013500010916601B8E03B9F000D111D11245A98B1
:10136000F8016581662321F0868197810E944909F1
:101370000E94B908F0E1FA95F1F75A9852985A9AF2
:1013800080E18A95F1F7D80112966C911297662345
:1013900069F013968D919C9114970E94E908D801E9
:1013A000ED91FC91811105C082E004C0D801ED915E
:1013B000FC9188E080830E94B1080F90DF91CF916B
:1013C000FF91EF91BF91AF919F918F917F916F911D
:1013D0005F914F913F912F911F910F910F900FBEF1
:1013E0000F901F9018950F931F93CF93DF93209129
:1013F000640130E0281739070CF471C09C0193E0B8
:10140000220F331F9A95E1F7C0916501D0916601D3
:10141000C20FD31FF894529A5A9845E04A95F1F7B3
:101420000000982F969595708570890F982F93706E
:1014300086958695890F8901082B0E94B90884E05A
:101440008A95F1F700C067E0802F0E94290940E1EA
:101450004A95F1F752985A9A4A9902C000C0FCCFB7
:1014600087E090E04A9B0EC0019751F4529A5A9A35
:10147000E881F98181E08083789481E090E031C057
:1014800000C0F0CF6D81662381F08E819F810E9424
:10149000E90881110AC0529A5A9AE881F98182E0DA
:1014A0008083789482E090E01CC00E94B10880E2C2
:1014B0008A95F1F75A98529A40E14A95F1F76A8174
:1014C000662321F08B819C810E9449090E94B90802
:1014D000E881F9811082789480E090E002C084E095
:1014E00090E0DF91CF911F910F91089590936C013F
:1014F00080936B010895E0916B01F0916C0130973E
:1015000021F00190F081E02D099480E00895E091B0
:101510006B01F0916C01309721F00280F381E02D96
:1015200009940895E0916B01F0916C01309739F0C6
:1015300022E0DC012C930480F581E02D09940895CC
:101540002091690130916A012817390771F0909351
:101550006A0180936901E0916B01F0916C01309711
:1015600021F00680F781E02D09940895209167010C
:10157000309168012817390771F0909368018093C2
:101580006701E0916B01F0916C01309721F00084CC
:10159000F185E02D0994089585B7806885BF85B7EA
:1015A000806885BF089508950C94D30A0C94D40ADA
:1015B0000C94D30A0C94D30A0E94CC0A0E94D80A35
:1015C0000C94D60A81E008950C94E20A0E94061653
:1015D0000E941C020E9461160C94DA0AAF92BF921C
:1015E000CF92DF92EF92FF920F931F93CF93DF93EF
:1015F000CDB7DEB72A970FB6F894DEBF0FBECDBFCA
:101600000E9437030E94E40A811111C08FEF898381
:101610008A831B820E940F168160782F9D838C83A2
:1016200049815A816B818D810E94860B40C08EE674
:10163000A82E81E0B82E00E010E0C02E802F0E947E
:10164000A003E82EF501D1905F01D82631F40F5F99
:101650001F4F0830110589F7D9CF8091E20181FD34
:101660000E94A60380E0FF24F3949D2D9F21D1F0DA
:101670008E83CF82EF2081E009F480E088870E948A
:101680000F168160782F9A8789874E815F816885E0
:101690008A850E94860BF801E259FE4F8081F82668
:1016A000F08205C08F5FFF0C8630F9F6D0CF0E9424
:1016B000F3170E947B0A90916D018917B1F00E9487
:1016C0007B0A80936D012A960FB6F894DEBF0FBE99
:1016D000CDBFDF91CF911F910F91FF90EF90DF90E1
:1016E000CF90BF90AF900C9483042A960FB6F894D5
:1016F000DEBF0FBECDBFDF91CF911F910F91FF9045
:10170000EF90DF90CF90BF90AF900895CF93DF938D
:10171000CDB7DEB72B970FB6F894DEBF0FBECDBFA7
:101720004F83588769877A878B87DE01119686E019
:10173000FD0111928A95E9F785E0FE013796019047
:101740000D928A95E1F749815A816B817C818D8167
:101750009E810E9456112B960FB6F894DEBF0FBEE5
:10176000CDBFDF91CF910895FC01808191810E94CE
:10177000AF130895CF938823B1F1C82F8CEF8C0F4E
:10178000813AD0F46C2F80911C0190911D010E9430
:101790004515882349F06C2F80911C0190911D0103
:1017A0000E947D150E942F146C2F80911C01909136
:1017B0001D010E947B150CC080E28C0F883058F40C
:1017C000C77081E001C0880FCA95EAF70E94F11343
:1017D000CF910C942F14C03F30F08C2F0E94FB1639
:1017E000CF910C94E817CF910895882389F19CEF4D
:1017F000980F913A40F4682F80911C0190911D013F
:101800000E947D150DC090E2980F983058F48770B3
:1018100091E001C0990F8A95EAF7892F0E94F7138A
:101820000C942F149BE5980F933020F480E090E007
:101830000C94A00A98E5980F973120F480E090E08E
:101840000C94B60A803F20F00E9463170C94E817AE
:101850000895CF93C82F0E94BA0BC93349F42FEFD4
:1018600087EE93E0215080409040E1F700C00000F7
:101870008C2FCF910C94F50B882321F00E94F1134B
:101880000C942F140895882321F00E94F7130C94D0
:101890002F140895CF92DF92EF92FF920F931F9330
:1018A000CF93DF937C01D62FC72FFC0105810295D2
:1018B0000F70128111110E940E140E94E7138823E9
:1018C00099F0112389F08C2F807F803421F080E201
:1018D0008D0F883048F082E00E9479140E94E7134F
:1018E00091E0D82ED92601C0D12CCC2EC2948FE005
:1018F000C8228C2D90E08C30910508F098C1FC0135
:10190000EA5AFF4F0C94D41F8C2F807FCF7088230E
:1019100011F0C295C07F112399F0CC2309F473C153
:1019200080E28D0F883010F0D11104C08C2F0E94FE
:10193000F11303C08C2F0E9401140E942F1463C165
:101940008D2F0E94F50BCC2309F471C180E28D0F1D
:10195000883010F0D11104C08C2F0E94F71303C0FF
:101960008C2F0E9407140E942F1461C18C2F807F3E
:10197000CF70803211F0C295C07FDD2319F0D130D5
:10198000C9F022C0112371F0002341F0013031F47D
:101990000E9414148C2B0E941C1449C10E94141420
:1019A0008C2B1DC0002319F0013009F440C10E94A6
:1019B000251425C0112321F0063008F038C10EC0CF
:1019C000053008F034C11BC0112361F0002331F051
:1019D000F701858180FF17C18F7085838C2F0E944E
:1019E0003C0C25C1002359F0D93309F01DC1FFEF8C
:1019F00007EE13E0F15000401040E1F713C18C2FC7
:101A00000E94430C14C18D2F112319F00E94FB1664
:101A100002C00E9463170E94E81711C18C2F8370C7
:101A200009F047C0111107C12D2F22952695277067
:101A3000220F220F6D2F6F70862F90E0A0E0B0E094
:101A4000022E04C0880F991FAA1FBB1F0A94D2F749
:101A5000D4FF10C04FE050E060E070E004C0440FDD
:101A6000551F661F771F2A95D2F7409550956095B0
:101A7000709503C040E050E0BA01C695C695C370AA
:101A80008A019B01082B192B2A2B3B2BC901B8017A
:101A9000C23049F058F4C13019F00E942A12CBC06C
:101AA0000E941812C8C00E943C12C5C00E941612A3
:101AB000C2C0112319F08C2F817001C08695882334
:101AC00009F4B9C02D2F229526952770220F220FD9
:101AD0006D2F6F70862F90E0A0E0B0E0022E04C062
:101AE000880F991FAA1FBB1F0A94D2F7D4FF10C0FA
:101AF0004FE050E060E070E004C0440F551F661FE7
:101B0000771F2A95D2F7409550956095709503C040
:101B100040E050E0BA01C695C695C3708A019B01AA
:101B2000082B192B2A2B3B2BC901B801C23049F0D5
:101B300058F4C13019F00E94EF127DC00E94DD12EE
:101B40007AC00E94011377C00E94501274C0CF70F7
:101B5000112339F08C2F0E9476128D2F0E943C0C9D
:101B60006AC08D2F0E94430C8C2F0E94971263C075
:101B7000D23F01F128F4D03F41F0D13FA1F03FC066
:101B8000D33FF9F0D43F39F13AC0112341F0053089
:101B900008F04DC08C2F8F710E94BC1248C00630D7
:101BA00008F045C0F7CF112339F08C2F8F710E94B8
:101BB00076123DC01123C9F38C2F8F710E949712AA
:101BC00036C0112329F08C2F8F710E9461122FC013
:101BD0000E945C122CC0112349F0CF718C2F0E94FF
:101BE000761263E08C2F0E94641421C081E00E9471
:101BF00079140230E0F082E00E94791418C01123B9
:101C000031F0002391F28D2F0E94BA0B10C00023F7
:101C100099F2D93349F41FEF27EE33E011502040F9
:101C20003040E1F700C000008D2F0E94F50B88EFD7
:101C30008C0D843020F40E947B0A0E948304DD20F6
:101C4000C9F00E94E31380FD15C0F70112820E94C3
:101C5000DD130E947612C7010E945B0E0E94DD1305
:101C6000DF91CF911F910F91FF90EF90DF90CF9078
:101C70000C949712DF91CF911F910F91FF90EF90ED
:101C8000DF90CF9008950F931F93CF93DF93EC01D4
:101C9000688179818A810E94BA138C010E94131392
:101CA0000E940412B801CE010E944A0CDF91CF912C
:101CB0001F910F910895CF93DF93EC019881898153
:101CC0002B813C81232B31F08F3F31F481E09F3F0A
:101CD00019F403C081E001C080E080FD19C0CE018D
:101CE0000E949C0481110CC00E94E713882381F09C
:101CF0008A81882369F082E0DF91CF910C94791476
:101D0000CE010E94430ECE01DF91CF910C94670467
:101D1000DF91CF9108950E940E140E9411140E9429
:101D20002F140E9412190C94E81780911C019091B5
:101D30001D010E947F150C948B0E0E94FE130C94C3
:101D4000950EE92FE295EF704E2F50E0FA01329791
:101D5000EE30F105B0F4EE59FF4F0C94D41F803FE4
:101D600091F018F4883E68F40EC0843F51F40BC023
:101D7000883E48F0813F29F406C093FB882780F90C
:101D8000089580E0089581E008950E94AF130E94B5
:101D9000A10E0895CF93DF9300D000D01F92CDB74E
:101DA000DEB70F900F900F900F900F90DF91CF91B3
:101DB0000895CF93DF9300D000D000D0CDB7DEB729
:101DC00026960FB6F894DEBF0FBECDBFDF91CF9140
:101DD00008951F93CF93DF93C091770116E0809110
:101DE0007801C81799F0D0E01C9FF0011D9FF00DFD
:101DF0001124E758FE4F40815181628173818481B3
:101E000095810E94D90E2196C770E9CFDF91CF91BD
:101E10001F9108954091A9015091AA016091AB01D1
:101E20007091AC018091AD019091AE010C94D90EEE
:101E30000F931F93CF93DF938091AE0182958F70A4
:101E400009F05DC08091AB01882309F458C08091EE
:101E50007701109178016091A9017091AA01C09158
:101E6000AC01D091AD0191E06F3F09F090E0292FD6
:101E700006E0811709F443C0209721F07F3F21F04D
:101E800030E003C031E001C0322F90E030FD34C0BB
:101E9000089FF001099FF00D1124DF01A758BE4FE4
:101EA00011963C911197371327C03C91361324C0EB
:101EB00012963C91129731111FC013964D915C916F
:101EC00014974C1B5D0B483C5105B0F48091AE015A
:101ED0008F7080618093AE01E258FE4F80818F70D9
:101EE0008061808389EA91E00E945B0EDF91CF914F
:101EF0001F910F910C94E90E01968770BACFDF9174
:101F0000CF911F910F9108959F92AF92BF92CF9260
:101F1000DF92EF92FF920F931F93CF93DF93CDB792
:101F2000DEB761970FB6F894DEBF0FBECDBF8C0150
:101F300085E0F801DE011D9601900D928A95E1F78A
:101F4000F80140815181E2809091A9016091AA013C
:101F50002091AC013091AD012115310531F06F3F79
:101F600031F481E09F3F19F403C081E001C080E0BB
:101F7000F82FF1709F2E80FD46C1F801A380B48038
:101F800089EAC82E81E0D82EF090AB01F501E21B62
:101F9000F30BFF2009F4DFC08091AE01E83CF105AE
:101FA00008F09BC0282F207F09F052C0561313C0A1
:101FB000491311C0FE2CE1100EC08F708061809318
:101FC000AE010E940A0FC6010E945B0E8091AE0115
:101FD000F801858358C1AB2831F05F3F31F481E0CF
:101FE0004F3F19F403C081E001C080E080FD03C0D1
:101FF00081E08E2502C080E090E0F82FF170FF2E86
:1020000080FF1CC0809177012091780136E0821713
:1020100009F417C190E0389FF001399FF00D1124A9
:10202000E758FE4F6181561306C06081461303C016
:102030006281E61203C001968770E9CFFE2CEE2084
:1020400009F421C18091AE0181608093AE015AC034
:10205000561306C0491304C0E11002C0F8019FC026
:102060004D875E878D859E850E94C50E882379F1F8
:10207000EE2069F12091AE01822F82958F7090E061
:10208000029774F08091A9019091AA0198878F839B
:102090001986BB86AA862C87CE0107960E945B0E06
:1020A00086E0F801A9EAB1E001900D928A95E1F786
:1020B0000E94180F0E940A0F0DC0561729F14D8774
:1020C0005E878D859E850E94C50E81112CC0C8013A
:1020D0000E945B0EFF24F394D6C0282F207F69F75F
:1020E0007A2DB98AA88A6E2D89890E94CA0E89EA3A
:1020F00091E00E945B0E86E0F60111928A95E9F765
:102100000E940A0FF12CBFC04913D9CFE110D7CFDD
:10211000F8018583C8010E945B0E86E0F6011192EA
:102120008A95E9F7B0C0EE2091F22091AE01822F9E
:1021300082958F7090E002970CF4B2CF8091A90144
:102140009091AA019A8389831B82BD82AC822E83DF
:10215000CE010196A3CFE83CF10508F047C0FE2C64
:10216000EE2009F4B4CF561330C049132EC020918D
:10217000AE0120FD21C0822F82958F70482F50E044
:1021800041155105C9F0F80125834F30510541F043
:102190008F5F982F9295907F822F8F70892B8583E8
:1021A000C8010E945B0E86E0F801A9EAB1E0019047
:1021B0000D928A95E1F742C086E0F801A9EAB1E004
:1021C00001900D928A95E1F75EC04D875E878D85FF
:1021D0009E850E94C50E811163CF8091AE01816002
:1021E0008093AE01C8010E945B0E4DC07A2DB98A62
:1021F000A88A6E2D89890E94CA0E86E0F601119286
:102200008A95E9F71BC0EE2009F461CF4D875E8700
:102210008D859E850E94C50EF82E882309F457CF20
:1022200086E0F801A9EAB1E001900D928A95E1F704
:1022300089EA91E00E94B40B0E94180F0E940A0FD5
:1022400022C04D875E878D859E850E94AF13292F02
:1022500022952F70223028F49F7039F0811105C02B
:102260000BC0243028F49F7049F4805E883020F041
:10227000C8010E945B0E9F2CF92C05C0F8019581C6
:10228000907F99F7F9CF8F2D61960FB6F894DEBF46
:102290000FBECDBFDF91CF911F910F91FF90EF90B7
:1022A000DF90CF90BF90AF909F9008951F93CF93F2
:1022B000DF93CDB7DEB72C970FB6F894DEBF0FBE15
:1022C000CDBF4F83588769877A878B879C87CE01DC
:1022D00007960E94840F8823D1F09F8188852A85E4
:1022E0003B85232B31F08F3F31F481E09F3F19F480
:1022F00003C081E001C080E080FD47C04F81588568
:1023000069857A858B859C850E94D90E3EC086E0C2
:10231000FE013796DE01119601900D928A95E1F744
:10232000FF81E8856A857B856115710531F0EF3F96
:1023300031F481E0FF3F19F403C081E001C080E087
:1023400080FD23C02091780130E0C901019687709B
:1023500099274091770150E084179507F1F1F983AF
:10236000EA837D836C8396E0929FD001939FB00DAA
:102370001124A758BE4FFE01319601900D929A95F7
:10238000E1F7809378010E94E90E16E080917701D1
:1023900090917801891771F1189FC0011124875815
:1023A0009E4F0E94840F882329F1E09177011E9FA0
:1023B000F0011124E758FE4F408151816281738101
:1023C000848195810E94D90E8091770190E00196D9
:1023D0008770992780937701D9CF0E949D0E109224
:1023E000780110927701E9EAF1E086E0DF011D92C1
:1023F0008A95E9F72C960FB6F894DEBF0FBECDBFD5
:10240000DF91CF911F910895089508950C940512BE
:102410000C9406120E9408126093D1017093D201AD
:102420008093D3019093D4010C948B0E0C940A12D8
:102430000F931F930091D1011091D2012091D301EC
:102440003091D401602B712B822B932B1F910F9114
:102450000C940A120F931F930091D1011091D20195
:102460002091D3013091D4016023712382239323DF
:102470001F910F910C940A120F931F930091D10199
:102480001091D2012091D3013091D401602771279E
:10249000822793271F910F910C940A120C94051216
:1024A0000E944E126093CD017093CE018093CF01B4
:1024B0009093D0010C948B0E60E070E0CB010C94F3
:1024C00050120F931F9341E050E060E070E08A01EA
:1024D0009B0104C0000F111F221F331F8A95D2F7E2
:1024E000C901B8011F910F910C9450120F931F93C3
:1024F00041E050E060E070E004C0440F551F661FEB
:10250000771F8A95D2F78091CD019091CE01A0914D
:10251000CF01B091D0018A019B01082B192B2A2BE6
:102520003B2BC901B8011F910F910C9450120F93CE
:102530001F9341E050E060E070E004C0440F551F7D
:10254000661F771F8A95D2F74095509560957095D4
:102550008091CD019091CE01A091CF01B091D00199
:102560008A019B01082319232A233B23C901B801AF
:102570001F910F910C9450120F931F9341E050E064
:1025800060E070E004C0440F551F661F771F8A95F6
:10259000D2F78091CD019091CE01A091CF01B09161
:1025A000D0018A019B01082719272A273B27C90147
:1025B000B8011F910F910C9450120F931F9300912B
:1025C000CD011091CE012091CF013091D001602B2F
:1025D000712B822B932B1F910F910C9450120F9300
:1025E0001F930091CD011091CE012091CF01309128
:1025F000D00160237123822393231F910F910C94A8
:1026000050120F931F930091CD011091CE01209194
:10261000CF013091D00160277127822793271F9126
:102620000F910C9450120895292F220F920F990F99
:10263000890FE82FE695E695E695877051E001C091
:10264000550F8A95EAF785E0E89FF0011124E155DE
:10265000FE4F20E030E070E04081CB01022E02C04E
:10266000969587950A94E2F7817081958427852352
:10267000842781932F5F3F4F2530310569F70895F7
:10268000292F220F920F990F890F682F6695669553
:102690006695982F977085E0689FB001112440E0FF
:1026A00050E080E0FB01E40FF51FE155FE4F208173
:1026B00030E0092E02C0369527950A94E2F7217082
:1026C0003327042E01C0220F0A94EAF7822B4F5FB2
:1026D0005F4F4530510531F70895BF92CF92DF9299
:1026E000EF92FF920F931F93CF93DF938C01C090D3
:1026F000CD01D090CE01E090CF01F090D00180913B
:10270000D1019091D201A091D301B091D401C82AF6
:10271000D92AEA2AFB2ACFE1D0E0D701C6010C2E44
:1027200004C0B695A795979587950A94D2F780FD32
:1027300004C0219790F7B12C07C0BC2EB8018C2F94
:102740000E94EC040197A9F38B2DDF91CF911F918B
:102750000F91FF90EF90DF90CF90BF900895CF93AF
:10276000DF93EC010E946D13BE010E94EC04DF9127
:10277000CF9108951F93CF93DF93EB019091760152
:10278000992321F0CB010E94AF1313C0882349F095
:10279000CB010E946D13182F682FCE010E941413D5
:1027A00004C0CB010E944013182FBE01812F0E944C
:1027B000EC04DF91CF911F9108958091D50185950B
:1027C0008595859508958091D5018770089590919C
:1027D000D501977081E009F480E008958091E101CE
:1027E00008959091E101892B8093E10108958095EE
:1027F0009091E10189238093E10108951092E10114
:1028000008959091E001892B8093E00108958095CF
:102810009091E00189238093E00108951092E001F6
:1028200008951092DF0108958091D60108950895CA
:102830000C9417140C9418149091D601981721F049
:102840008093D6010C941A1408958091D6018823A0
:1028500029F01092D60180E00C941A140895E091AA
:102860001C01F0911D018091E1018083E0911C0128
:10287000F0911D0190818091E001892B8083E0918E
:102880001C01F0911D0190818091DF01892B8083D3
:102890008091D601882381F0E0911C01F0911D0107
:1028A0009081892B808380911C0190911D010E9451
:1028B000391581110E94251480911C0190911D01F0
:1028C0000C94870A0C94171498E0899F90011124A6
:1028D000262B2093D5010E9476128091D5018595F3
:1028E000859585950C9462141092D50180E00C9426
:1028F00062142091D501809582238093D501982F71
:10290000977079F430E0482F082E000C550B2417EF
:10291000350739F08595859585950E9497120C9419
:102920007414089580E090E00E94032021E08C3E22
:102930009E4F09F020E0822F089582E090E00C94F1
:10294000FB1F83E090E00C94FB1FCF9384E090E0AA
:102950000E94FB1FC82F81E290E00E94FB1F2C2FDA
:1029600030E0A901582BCA01CF910895CF93C92F08
:10297000682F84E090E00E9409206C2F81E290E0B3
:10298000CF910C940920AB01BC018FE090E00C9436
:102990001B20AB01BC0183E190E00C941B2060E0A4
:1029A00070E0CB010C94C91460E070E0CB010E9490
:1029B000C3140C94CF146CEE7EEF80E090E00E9484
:1029C000272060E082E090E00E94092060E083E040
:1029D00090E00E9409201092D1011092D201109231
:1029E000D3011092D40160E084E090E00E940920BD
:1029F00060E081E290E00E94092060E085E090E0E4
:102A00000E94092060E086E090E00E9409206FEFBC
:102A100087E090E00E94092040E050E0BA0188E0A1
:102A200090E00E941B2060E08DE090E00E94092071
:102A300040E050E0BA0188E190E00E941B2060E095
:102A400087E190E00E94092040E050E0BA018CE16B
:102A500090E00E941B2060E080E290E00E9409204C
:102A60000C94D4140C94DB14682F8EE090E00C943A
:102A70000920FC01329697E080E0915029F02191E5
:102A80002223D9F38F5FF9CF0895662349F0FC0123
:102A9000329608962191621729F0E817F907D1F7C5
:102AA00080E0089581E008959C01FC0132969FEF3B
:102AB00080E04191461789F09F3F19F4411101C010
:102AC000982F8F5F8630A9F79F3F39F0F901E90F02
:102AD000F11D97FDFA956283089508959C012A5F80
:102AE0003F4FFC014281461301C0128201968217BA
:102AF0009307B9F708950C9454150C946E1502962B
:102B000026E0FC0111922A95E9F7089508950C94A6
:102B100086150C948615CF930E9489150E94370361
:102B20000E948715C0E08C2F0E94A003811104C071
:102B3000CF5FC830C1F701C081E0CF9108950C94F8
:102B400086150C949F150E94A11580910702843070
:102B500049F11092E30120E488E190E00FB6F89487
:102B6000A895809360000FBE2093600080E00E94D3
:102B700083040E94A11583B7817F846083BF83B7DC
:102B8000816083BF7894889583B78E7F83BF0FB6AB
:102B9000F894A895809160008861809360001092FD
:102BA00060000FBE08950C9486150E949D0E0E9431
:102BB0007B0A0E9483040C94D3151F920F920FB6C8
:102BC0000F9211248F939F93AF93BF938091E30152
:102BD000811113C08091FD019091FE01A091FF0130
:102BE000B09100024196A11DB11D8093FD0190930B
:102BF000FE01A093FF01B0930002BF91AF919F919E
:102C00008F910F900FBE0F901F90189582E084BD9A
:102C100093E095BD9AEF97BD80936E0008952FB70E
:102C2000F8948091FD019091FE01A091FF01B09177
:102C300000022FBF08959C014FB7F8948091FD01C9
:102C40009091FE01A091FF01B09100024FBF821B45
:102C5000930B089578941F920F920FB60F92112440
:102C60008F939F93AF93BF938091FD019091FE014D
:102C7000A091FF01B09100020196A11DB11D8093AA
:102C8000FD019093FE01A093FF01B0930002BF915C
:102C9000AF919F918F910F900FBE0F901F9018953D
:102CA00087E797E790930108809300089AE088E10E
:102CB0000FB6F894A895809360000FBE90936000C3
:102CC000FFCF0E949214811102C00E9432150E940F
:102CD0009D148093E2010E94A514909302028093B8
:102CE00001020E94A114682F70E080E090E00C9433
:102CF00016128091EB0180FF0BC06091230185E0EB
:102D0000689FB001112475956795759567952BC0DF
:102D100081FF09C06091230185E0689FB001112403
:102D20007595679520C082FF07C06091230185E0FB
:102D3000689FB001112417C09091EA019923D1F046
:102D400060912201961788F72091230185E0289F42
:102D500090011124929FA001939F500D112470E0C7
:102D6000CA010E94C01F6038710540F461157105E9
:102D700019F406C065E070E0862F08958FE7089586
:102D800081E008958091EB0180FF08C060911F01F0
:102D900070E0759567957595679521C081FF06C0B0
:102DA00060911F0170E07595679519C082FF04C09E
:102DB00060911F0170E010C09091EA01992399F091
:102DC00060911E019617A0F780911F01899FC00195
:102DD000112470E00E94C01F6038710540F4611535
:102DE000710519F406C061E070E0862F08958FE741
:102DF000089581E00895803F21F40E94791681951D
:102E000004C0813F29F40E9479168093EF01089550
:102E1000823F21F40E947916819504C0833F29F4F2
:102E20000E9479168093EE010895893F19F40E945B
:102E3000C21605C08A3F31F40E94C2168195809364
:102E4000F00108958B3F21F40E94C216819504C0C1
:102E50008C3F29F40E94C2168093F1010895843FAB
:102E600021F48091ED01816017C0853F21F48091AC
:102E7000ED01826011C0863F21F48091ED018460F4
:102E80000BC0873F21F48091ED01886005C0883F29
:102E900031F48091ED0180618093ED0108958D3FC3
:102EA00021F48091EB0181600BC08E3F21F4809171
:102EB000EB01826005C08F3F29F48091EB018460B3
:102EC0008093EB010895803F39F48091EF0187FFF3
:102ED0006CC01092EF0169C0813F29F48091EF012D
:102EE0001816BCF362C09091EE01823F29F497FF5F
:102EF0005CC01092EE0159C0833F19F41916CCF34F
:102F000054C0893F41F48091F00118160CF04DC077
:102F10001092F0014AC08A3F29F48091F00187FFA6
:102F200044C0F6CF8B3F39F48091F10187FF3DC05B
:102F30001092F1013AC08C3F29F48091F1011816EA
:102F4000BCF333C0843F21F48091ED018E7F17C024
:102F5000853F21F48091ED018D7F11C0863F21F4E2
:102F60008091ED018B7F0BC0873F21F48091ED01B3
:102F7000877F05C0883F31F48091ED018F7E80937B
:102F8000ED0113C08D3F21F48091EB018E7F0BC0CA
:102F90008E3F21F48091EB018D7F05C08F3F29F496
:102FA0008091EB018B7F8093EB018091EE01811189
:102FB0000EC08091EF0181110AC08091F001811152
:102FC00006C08091F101811102C01092EA010895BA
:102FD0008CEE91E00E94920A0E940F169093E901F4
:102FE0008093E8010895CF93DF9300D000D000D004
:102FF000CDB7DEB786E0ECEEF1E0DE011196019090
:103000000D928A95E1F78091EE01811105C08091C2
:10301000EF01882309F47AC08091E6019091E701DD
:103020000E941B16AC019091EA01992339F020917E
:10303000240130E02417350758F068C0209125019D
:103040008AE0289F900111242417350718F05EC0EC
:103050009F3F19F09F5F9093EA011092F001109248
:10306000F1018091EE01181624F40E9479168093E4
:10307000EE018091EE0187FF05C00E9479168195CF
:103080008093EE018091EF01181624F40E947916C6
:103090008093EF018091EF0187FF05C00E947916B0
:1030A00081958093EF013091EE013323E1F020917F
:1030B000EF012223C1F045EB3403C0011124992311
:1030C00019F09093EE0103C081E08093EE0135EB9F
:1030D0002303C0011124992319F09093EF0103C039
:1030E00081E08093EF010E94E8178091E8019091C0
:1030F000E9019093E7018093E60186E0FE013196B5
:10310000ACEEB1E001900D928A95E1F78091F0016B
:10311000811105C08091F101882309F47AC0809162
:10312000E4019091E5010E941B16AC019091EA0127
:10313000992339F02091200130E02417350758F009
:1031400068C0209121018AE0289F90011124241752
:10315000350718F05EC09F3F19F09F5F9093EA011A
:103160001092EE011092EF018091F001181624F4F4
:103170000E94C2168093F0018091F00187FF05C084
:103180000E94C21681958093F0018091F10118167A
:1031900024F40E94C2168093F1018091F10187FF0F
:1031A00005C00E94C21681958093F1013091F00113
:1031B0003323E1F02091F1012223C1F045EB3403E8
:1031C000C0011124992319F09093F00103C081E00C
:1031D0008093F00135EB2303C0011124992319F0EA
:1031E0009093F10103C081E08093F1010E94E81700
:1031F0008091E8019091E9019093E5018093E401C9
:1032000086E0FE013196ACEEB1E001900D928A9518
:10321000E1F726960FB6F894DEBF0FBECDBFDF9163
:10322000CF910895ECEEF1E086E0DF011D928A95E2
:10323000E9F71092EA011092EB0108958091FA01EA
:1032400008950895CF93DF93EC010E94051B82300F
:1032500011F08430F9F482E08093E9008FEF9091CF
:10326000E800815095FD06C095ED9A95F1F70000B4
:103270008111F5CF8091E80085FF0CC040E050E05F
:1032800066E070E0CE010E94221B8091E8008E77FC
:103290008093E800DF91CF910895CF93DF93EC0105
:1032A0000E94051B823011F0843039F581E0809353
:1032B000E9008FEF9091E800815095FD06C095EDF3
:1032C0009A95F1F700008111F5CF8091E80085FF14
:1032D00014C040E050E068E070E0CE010E94221B84
:1032E0008091E8008E778093E80088E0FE01A2EFED
:1032F000B1E001900D928A95E1F7DF91CF910895A9
:10330000089580910602811109C00E94B31C0E9499
:10331000101D8091E20084608093E2000895109275
:1033200006020895089508950C94D51542E061ECC5
:1033300081E00E942C1C42E261EC82E00C942C1C87
:1033400080910902833009F460C030F4813071F05B
:10335000823009F499C008958A3009F485C08B3011
:1033600009F46BC0893009F0A7C020C08091080221
:10337000813A09F0A1C08091E800877F8093E8003E
:1033800080910C0290910D02892B21F468E082EF6C
:1033900091E003C060E080E090E070E00E946D1B6F
:1033A0008091E8008B778093E8000895809108026F
:1033B000813209F081C080910C0290910D02029738
:1033C00008F07AC08091E800877F8093E8008091C0
:1033D000E80082FD05C0809107028111F8CF6CC022
:1033E0002091F3008091F20090E0922B029729F453
:1033F0008091F1008B7F813021F48091F1008093E6
:10340000FA018091E8008B7753C080910802813ADD
:1034100009F052C080910C0290910D02892B09F0A5
:103420004BC08091E800877F8093E8008091E8009E
:1034300080FFFCCF8091300136C08091080281323C
:10344000D9F580910C0290910D02892BA9F58091FC
:10345000E800877F8093E8000E94611C80910A0247
:10346000809330010C949D0E80910802813221F5E9
:103470008091E800877F8093E8000E94611C809122
:103480000B028093FB01089580910802813AA1F418
:103490008091E800877F8093E8008091E80080FFBA
:1034A000FCCF8091FB018093F1008091E8008E7742
:1034B0008093E8000C94611C089584B7877F84BFD3
:1034C0000FB6F894A89580916000886180936000A1
:1034D000109260000FBE90E080E80FB6F8948093E1
:1034E0006100909361000FBE0E94DC0A0E94B31C31
:1034F0000E94101D8091E20084608093E200789425
:103500000E94A51F0E94E60A86E291E00E94760AC8
:1035100080910702853069F40E94A315809105020D
:103520008823B1F30E948B15882391F30E940C1B12
:10353000EFCF0E94EE0AECCF0C949E1A292F33276E
:1035400023303105C9F060F42130310581F022309B
:10355000310509F04AC08BE390E020E632E049C033
:103560002132310511F12232310579F13EC082E17B
:1035700090E02BE932E03DC099278130910561F060
:1035800040F08230910559F0039779F5E4E1F2E0DB
:1035900008C0ECE5F2E005C0EAE4F2E002C0EAE1CE
:1035A000F2E0849190E09F0124C06115710541F023
:1035B00061307105D1F489E090E02BE832E019C068
:1035C00089E090E022E732E014C06115710541F016
:1035D0006130710551F48FE490E02DEA32E009C0CA
:1035E00080E490E02CEF32E004C080E090E020E046
:1035F00030E0FA01318320830895809107028430FE
:1036000011F081E0089582E008958091FC0181111C
:1036100002C00C94FD1A089580E189BD82E189BD44
:1036200009B400FEFDCF8091D8008F7D8093D80033
:103630008091E00082608093E0008091E00081FD55
:10364000FCCF0895CF92DF92EF92FF920F931F93DA
:10365000CF93DF93EC018B017A010E94801C8111D2
:1036600033C0E114F10439F0F70180819181081B26
:10367000190BC80FD91FC12CD12C0115110519F137
:103680008091E80085FD16C08091E8008E778093D8
:10369000E800E114F10449F0F70180819181C80E3E
:1036A000D91ED182C08285E00FC00E94801C882371
:1036B00021F30AC089918093F10001501109FFEFB5
:1036C000CF1ADF0ADACF80E0DF91CF911F910F91FF
:1036D000FF90EF90DF90CF90089520910E023091EF
:1036E0000F022617370748F06115710539F420914C
:1036F000E8002E772093E80001C0B901FC0120E02A
:103700006115710579F1809107028823F1F1853007
:10371000F1F18091E80083FD3CC08091E80082FDDA
:103720002EC08091E80080FFEBCF2091F3008091C4
:10373000F20090E0922B6115710551F088309105EF
:1037400038F421912093F100615071090196F3CF73
:1037500021E0089709F020E08091E8008E778093BF
:10376000E800CECF2111CFCF0AC080910702882375
:1037700061F0853061F08091E80083FD0AC080919E
:10378000E80082FFF2CF80E0089582E0089583E0B0
:10379000089581E0089520910E0230910F022617BE
:1037A000370748F06115710539F42091E8002E774C
:1037B0002093E80001C0B901FC0120E0611571050A
:1037C00091F180910702882309F440C0853009F403
:1037D0003FC08091E80083FD3DC08091E80082FDFC
:1037E0002FC08091E80080FFE9CF2091F300809105
:1037F000F20090E0922B6115710559F08830910527
:1038000040F424912093F1003196615071090196A2
:10381000F2CF21E0089709F020E08091E8008E7750
:103820008093E800CBCF2111CCCF0AC08091070252
:10383000882361F0853061F08091E80083FD0AC043
:103840008091E80082FFF2CF80E0089582E0089541
:1038500083E0089581E00895982F973068F590935C
:10386000E900981739F07091EC002091ED0050912B
:10387000F00003C0242F762F50E021FD02C09F5F8F
:10388000ECCF3091EB003E7F3093EB003091ED00B8
:103890003D7F3093ED003091EB0031603093EB00D1
:1038A0007093EC002093ED005093F0002091EE0017
:1038B00027FDE5CF80E008958F708093E90081E0D7
:1038C00008958091080287FF11C08091E80082FD71
:1038D00005C0809107028111F8CF11C08091E800E6
:1038E0008B770BC080910702882349F08091E80014
:1038F00080FFF8CF8091E8008E778093E8000895EC
:103900002091E4003091E50095E64091EC00842F91
:10391000817040FF23C08091E80080FD1DC0809130
:103920000702882399F0853099F08091EB0085FD9E
:1039300011C04091E4005091E5002417350729F3A8
:10394000915011F09A01E1CF84E0089582E008954A
:1039500083E0089581E0089580E008954091E800B3
:1039600042FFDDCF08950E94211D0E94291DE0EE37
:10397000F0E0808181608083E8EDF0E080818F77E6
:10398000808319BCA7EDB0E08C918E7F8C938081F1
:103990008F7E80831092060208950F931F93CF931A
:1039A000DF930E94211D0E94291DC8EDD0E088816F
:1039B0008F77888388818068888388818F7D8883DA
:1039C00019BC109207021092030210920502109285
:1039D000040200EE10E0F80180818B7F80838881F3
:1039E0008160888342E060E080E00E942C1CE1EE70
:1039F000F0E080818E7F8083E2EEF0E08081816064
:103A00008083808188608083F80180818E7F8083BD
:103A1000888180618883DF91CF911F910F910895F4
:103A2000E8EDF0E080818F7E8083E7EDF0E080813B
:103A30008160808384E082BF81E0809306020C94E1
:103A4000CD1CE8EDF0E080818E7F80831092E20053
:103A500008951092DA001092E10008951F920F92DB
:103A60000FB60F9211242F933F934F935F936F9351
:103A70007F938F939F93AF93BF93EF93FF93809127
:103A8000E10082FF0BC08091E20082FF07C08091BD
:103A9000E1008B7F8093E1000E94A41F8091DA00F7
:103AA00080FF1FC08091D80080FF1BC08091DA008A
:103AB0008E7F8093DA008091D90080FF0DC080E175
:103AC00089BD82E189BD09B400FEFDCF81E080930C
:103AD00007020E94811905C019BC109207020E94BA
:103AE0008F198091E10080FF19C08091E20080FF72
:103AF00015C08091E2008E7F8093E2008091E20009
:103B000080618093E2008091D80080628093D80029
:103B100019BC85E0809307020E9493198091E1000F
:103B200084FF30C08091E20084FF2CC080E189BD19
:103B300082E189BD09B400FEFDCF8091D8008F7D60
:103B40008093D8008091E1008F7E8093E100809186
:103B5000E2008F7E8093E2008091E200816080939A
:103B6000E20080910302882311F084E007C0809175
:103B7000E30087FD02C081E001C083E0809307027B
:103B80000E9494198091E10083FF29C08091E20096
:103B900083FF25C08091E100877F8093E10082E070
:103BA00080930702109203028091E1008E7F809340
:103BB000E1008091E2008E7F8093E2008091E2003C
:103BC00080618093E20042E060E080E00E942C1C73
:103BD0008091F00088608093F0000E949219FF911C
:103BE000EF91BF91AF919F918F917F916F915F9175
:103BF0004F913F912F910F900FBE0F901F901895EE
:103C00001F920F920FB60F9211242F933F934F9351
:103C10005F936F937F938F939F93AF93BF93CF9354
:103C2000DF93EF93FF93C091E900CF708091EC0098
:103C3000D82FD17080FDD0E81092E9008091F0007B
:103C4000877F8093F00078940E94441E1092E900D0
:103C50008091F00088608093F000CD2BCF70C093EE
:103C6000E900FF91EF91DF91CF91BF91AF919F91CB
:103C70008F917F916F915F914F913F912F910F9015
:103C80000FBE0F901F9018951F93CF93DF93CDB762
:103C9000DEB7AA970FB6F894DEBF0FBECDBFE8E03F
:103CA000F2E08091F100819322E0E031F207C9F760
:103CB0000E94A0198091E80083FF2EC18091080224
:103CC00090910902492F50E04A30510508F024C173
:103CD000FA01E059FF4F0C94D41F803821F082384C
:103CE00009F01AC108C0809104029091050299233D
:103CF00089F082600FC080910C028F70873008F0CD
:103D00000BC18093E9008091EB0085FB882780F947
:103D10001092E9009091E800977F9093E8008093DB
:103D2000F1001092F100D1C0282F2D7F09F0F4C0CE
:103D3000882319F0823061F0EFC080910A0281304F
:103D400009F0EAC0933009F080E0809305022EC0AC
:103D500080910A0281112AC080910C028F702FEF8E
:103D6000280F263008F0D8C08093E9002091EB009E
:103D700020FF1CC0933021F48091EB00806214C0BE
:103D80009091EB0090619093EB0021E030E0A9016D
:103D900002C0440F551F8A95E2F74093EA00109243
:103DA000EA008091EB0088608093EB001092E900BC
:103DB0008091E800877F8093E8000E94611CACC07E
:103DC0008111AAC010910A021F778091E3008078C8
:103DD000812B8093E3008091E800877F8093E80047
:103DE0000E94611C8091E80080FFFCCF8091E3007D
:103DF00080688093E300111102C082E001C083E07B
:103E00008093070289C08058823008F085C0809175
:103E10000A0290910B028C3D53E0950779F583E0FF
:103E20008A838AE289834FB7F894DE01139620E0F3
:103E30003EE051E2E32FF0E050935700E49120FF81
:103E400003C0E295EF703F5FEF708E2F90E0EA3095
:103E500010F0C79601C0C0968D939D932F5F2431BB
:103E600049F74FBF8091E800877F8093E8006AE2BE
:103E700070E0CE0101960E946D1B16C060910C028D
:103E800070910D02AE014F5F5F4F0E949C1ABC0102
:103E9000892B09F441C09091E800977F9093E80046
:103EA00089819A810E94CB1B8091E8008B77809357
:103EB000E80032C0803881F58091E800877F8093E8
:103EC000E800809103028093F1008091E8008E77F2
:103ED00072CF811121C080910A0290910B02992723
:103EE0000297D4F48091E800877F8093E800809166
:103EF0000A02809303020E94611C809103028111D7
:103F000006C08091E30087FD02C081E001C084E02B
:103F1000809307020E9496198091E80083FF0AC0EF
:103F20008091E800877F8093E8008091EB008062B9
:103F30008093EB00AA960FB6F894DEBF0FBECDBFFC
:103F4000DF91CF911F9108950895CF93809107023B
:103F50008823A1F0C091E900CF709091EC00892FE7
:103F6000817090FD80E8C82B1092E9008091E800F4
:103F700083FD0E94441ECF70C093E900CF91089545
:103F800097FB072E16F4009407D077FD09D00E9406
:103F9000DA1F07FC05D03EF4909581959F4F089558
:103FA000709561957F4F0895EE0FFF1F0590F49176
:103FB000E02D0994AA1BBB1B51E107C0AA1FBB1F20
:103FC000A617B70710F0A61BB70B881F991F5A95A5
:103FD000A9F780959095BC01CD010895FB01DC0106
:103FE00004C08D910190801921F441505040C8F7D0
:103FF000881B990B0895F999FECF92BD81BDF89A5F
:10400000992780B50895A8E1B0E042E050E00C9413
:104010002F20262FF999FECF92BD81BDF89A0197E6
:1040200000B4021639F01FBA20BD0FB6F894FA9A00
:10403000F99A0FBE08950396272F0E940A200E9426
:104040000920252F0E940A20242F0C940A20019673
:10405000272F0E940A200C940920DC01CB01FC01CF
:10406000F999FECF06C0F2BDE1BDF89A319600B4D1
:0E4070000D9241505040B8F70895F894FFCFDC
:10407E0005015701000000015501570104580101C7
:10408E0055015601000000045C01FFFFD70128080E
:10409E00641E140A321E1E194D1922198019211977
:1040AE0001F4F5F6F73133946697C6000000000070
:00000001FF
