:100000000C946E010C94B5010C94B5010C94680924
:100010000C94B5010C94B5010C94B5010C94B50188
:100020000C94B5010C94B5010C94271D0C94F91D8A
:100030000C94E5150C94B5010C94B5010C94B50124
:100040000C94B5010C94B5010C94B5010C94B50158
:100050000C94B5010C9432160C94B5010C94B501B6
:100060000C94B5010C94B5010C94B5010C94B50138
:100070000C94B5010C94B5010C94B5010C94B50128
:100080000C94B5010C94B5010C94B5010C94B50118
:100090000C94B5010C94B5010C94B5010C94B50108
:1000A0000C94B5010C94B5010C94B501890C890C24
:1000B000BB0CBB0C1C0E080D1C0E1C0E130DAC0D46
:1000C000BD0DBD0DB40EB40EC60EC60EBD0EC60ED1
:1000D000C60EC60EB40EB40EC20EC60EC60EC20EAC
:1000E000661E8D1E851F8D1E851FD91EFC1E851F39
:1000F000531F621F2B0014001A0008001500170080
:10010000E00004001600070009000A00E1001D00DD
:100110001B00060019000500000000000000E300BD
:1001200001512C002D00130012000C0018001C00BF
:10013000340033000F000E000D000B00E500380006
:100140003700360010001100000000000000E6003B
:10015000E400280000001E021F02200221022202E9
:10016000000059005A005B005C005D0000005E006A
:100170005F00600061006200000000000000E3001A
:1001800001002C002302240227022602340256001A
:100190003500310230022F0267002502350264006B
:1001A00030002F002E022D02000000000000E600AB
:1001B000290028000403300000002E0343006F00D4
:1001C00072006E00650020004B006500790062003F
:1001D0006F0061007200640020002800630072005C
:1001E0006B006200640029000000100366006F00CD
:1001F0006F007300740061006E00000004030904C6
:1002000009023B00020100A0FA09040000010301F9
:1002100001000921110100012240000705810308A6
:10022000000A090401000103000000092111010076
:1002300001224F000705820320000A12011001006D
:10024000000008EDFE603001000102030105010914
:1002500002A10185020901A100050919012905155D
:100260000025019505750181029501750381010540
:1002700001093009311581257F950275088106092C
:10028000381581257F950175088106050C0A38020D
:100290001581257F950175088106C0C005010906F5
:1002A000A101050719E029E7150025019508750149
:1002B00081029501750881010507190029FF1500C4
:1002C00026FF009506750881000508190129059586
:1002D0000575019102950175039101C011241FBE9E
:1002E000CFEFDAE0DEBFCDBF04B603FE27C08091BA
:1002F0000E0290910F02A0911002B091110287306E
:10030000904BA740B04BD1F410920E0210920F0206
:10031000109210021092110214BE84B7877F84BF1E
:100320000FB6F894A8958091600088618093600072
:10033000109260000FBEE0E0F8E3099511E0A0E044
:10034000B1E0E0E7F0E402C005900D92A034B107FF
:10035000D9F722E0A0E4B1E001C01D92AE30B207AF
:10036000E1F70E94651A0C9436200C940000CF939C
:10037000DF93A7E3B1E04BE351E061E070E08D91E2
:10038000E82FE295EF70F0E021A18F70EB0102C041
:10039000CC0FDD1F8A95E2F7CE019C2F909592231A
:1003A00091A392A1892B82A34A175B0741F7DF91A2
:1003B000CF91089508950C94DA010C94DA01209AF3
:1003C000559A289A5D9A08955D9808955D9A0895C2
:1003D00028980895289A08950E9496030E94B701CC
:1003E000A1E3B1E041E050E08D91E82FE295EF709C
:1003F000F0E021A18F70BA0102C0660F771F8A95C5
:10040000E2F7CB01962F9095922391A392A1892B8D
:1004100082A371E0A733B70739F70E94DF01E8E450
:10042000F1E0A0E4B1E011921D9281E0E035F8071F
:10043000D1F70E947703809350010C9442049F925D
:10044000AF92BF92CF92DF92EF92FF920F931F93E2
:10045000CF93DF9380910101811103C0C4E0D0E00C
:1004600002C0C0E0D0E0AE01405C5E4F7A0187E39D
:10047000C82E81E0D82E8A01AA24A394B12C25E0AD
:10048000922EFBE3CF16F1E0DF0609F44AC0F60135
:1004900081916F01E82FE295EF70F0E021A18F705C
:1004A000A50102C0440F551F8A95E2F7CA01922F99
:1004B000982B91A392A18095892382A350EA5A9503
:1004C000F1F7E1E3F1E020E040E050E03191A32FCB
:1004D000A295AF70B0E090968C9190E03F7002C012
:1004E000959587953A95E2F780FD07C0C501042EE2
:1004F00001C0880F0A94EAF702C080E090E0282B40
:100500004F5F5F4F4630510509F7F8018081821730
:1005100019F02083909200010E94B7010F5F1F4FD6
:10052000B0CF809100018823B1F081508093000109
:10053000811103C0C85BDE4F07C08FE99FE00197C0
:10054000F1F700C0000007C0F70191917F01999376
:100550008F5F8430C9F781E0DF91CF911F910F91B8
:10056000FF90EF90DF90CF90BF90AF909F90089555
:10057000CF93DF9320910101211103C0C0E0D0E0AF
:1005800002C0C4E0D0E00E94B103009729F00297B6
:10059000B1F40E94E80113C00E94EA01C85BDE4F7B
:1005A00080915C0190915D01A0915E01B0915F012D
:1005B00088839983AA83BB8380E090E002C081E0B6
:1005C00090E0DF91CF9108950E941F028091010178
:1005D000811103C0E4E0F0E002C0E0E0F0E0E85B9D
:1005E000FE4F20E030E080E0D901A45ABE4F4C918C
:1005F0009191491381E09C932F5F3F4F2430310547
:1006000099F790915501890F809355010895CF93E3
:10061000DF9380915001882309F442C00E941F0299
:1006200080910101811103C0C4E0D0E002C0C0E0AC
:10063000D0E0C85BDE4F44E050E0BE0188E591E0C9
:100640000E94E71F488159816A817B81409358014C
:100650005093590160935A0170935B010E94B80254
:10066000892BC9F00E94E401809151018F5F809332
:100670005101863078F180910101811103C0E0E0E1
:10068000F0E002C0E4E0F0E0E85BFE4F108211828F
:10069000128213821FC00E94E601109251011AC0FB
:1006A0000E94E40280910101811103C080E090E08A
:1006B00002C084E090E0FC01E85BFE4F40915801ED
:1006C0005091590160915A0170915B0140835183AF
:1006D000628373830E944A0481E0DF91CF91089581
:1006E000E82FF0E0E85BFE4F808108950895809147
:1006F0005201811112C08091D80080618093D8008E
:100700008AE18A95F1F700C08091D90080FD02C08E
:1007100082E001C081E08093520181E0909152011A
:10072000913009F080E008950C9477030E949403BF
:10073000809301010E947703882319F00E94A5038A
:1007400002C00E94AB037894089563E070E082E0F9
:1007500091E00C94160963E070E082E091E00C9463
:100760001F090F931F93CF93DF938C0190911B016F
:1007700080911A01981761F082E090E00E94F809D8
:10078000EC01892B39F480911A0180931B0102C07E
:10079000C0E0D0E0012B49F48091530190915401C5
:1007A000892B19F480E090E002C081E090E00E9483
:1007B000F809892B49F48091550180931A01109210
:1007C00054011092530106C081E090E090935401CF
:1007D00080935301CE01DF91CF911F910F91089526
:1007E0000C94F6030C94DB0181E0089581E00895F8
:1007F00008950C94F8031F93CF93DF9300D000D09B
:100800001F92CDB7DEB749835A836B83309176014F
:1008100089819A81311114C0662359F0222349F04D
:100820000E947513182F682F89819A810E941C13CA
:1008300003C00E944813182F69817A81812F04C058
:100840000E94751369817A810F900F900F900F901D
:100850000F90DF91CF911F910C94A904FC01262FDA
:10086000408151816281738184810C94FB03CF9319
:10087000DF93EC0160E00E942E04BE01DF91CF9176
:100880000C94F9030E949A14811102C00E943A1537
:100890000C94F2030C94DD0108950C944C0481E057
:1008A00008950C944F04CF93C82F0E944D048C2FB1
:1008B0000E945104CF91089508950E94A20E0E94B3
:1008C0005C042FEF84E39CE0215080409040E1F7EE
:1008D00000C000000C9458160F931F93CF93DF9322
:1008E000EC0161E00E942E048C01BE010E94F00325
:1008F000882349F1BE01C8010E940807882319F125
:10090000BE01C8010E945A078823E9F0BE01C80150
:100910000E9485088823B9F08A81882369F001152F
:100920008CE5180731F00E3D1C4531F40E943A1554
:100930000AC00E945D0407C0CE01DF91CF911F91D4
:100940000F910C94F40380E0DF91CF911F910F91F0
:10095000089520E3829FC0011124FC0126E0729FCC
:10096000E00DF11D1124E60FF11DEE0FFF1FEC50FD
:10097000FF4F859194910895CF93DF930E94A9042E
:100980000E949905EC018115924580F5C11581E51C
:10099000D80708F095C0CF3FD10509F0B8F4C03FA3
:1009A000D10508F06CC0C53AD10548F4C430D10572
:1009B00008F0BBC0C130D10509F4B7C0B4C0CE0146
:1009C000805E9109089708F4B0C0ADC0C11590E5EC
:1009D000D90708F059C0C11520E4D20708F051C06A
:1009E000C11580E2D80708F4A0C09DC0C11596E5E6
:1009F000D90718F5C11525E5D20708F07AC0C11549
:100A000084E5D80708F070C09E01237033278C2F2F
:100A100086958695C115D34508F057C0C1E0D0E052
:100A200002C0CC0FDD1F2A95E2F720E2829FC001B1
:100A30001124C82BD92BDC6878C0C1152AE5D20750
:100A400078F4C11589E5D80708F05DC0C11598E5AF
:100A5000D90708F468C0DC2FCC27C06FD06A65C006
:100A6000CE0190568115904208F05DC08D2F8F7198
:100A70000E942D06DD27D0628F71D82B56C0D0651D
:100A800054C0DF70D06A51C0CE0174E0969587954E
:100A90007A95E1F783709C2F937021E030E002C0DB
:100AA000220F331F9A95E2F73C68382BCF70C6951A
:100AB000C69580E2C89FE0011124C22BD32B35C01C
:100AC000DC2FCC27C16FD06A30C0C1E0D0E002C0BB
:100AD000CC0FDD1F2A95E2F720E2829FC00111248E
:100AE000C82BD92BDA6821C0DC2FCC27C46FD06A81
:100AF0001CC08C2F0E942D068F71C82FD0E0DC2FD8
:100B0000CC27D06212C08C2F8F700E942D0694E0EB
:100B1000D695C7959A95E1F7CF70D0E0DC2FCC271A
:100B2000D069C82B02C0C0E0D0E0CE01DF91CF91E8
:100B300008958238910569F1B0F48133910509F483
:100B40006DC048F48932910509F463C08A32910579
:100B500009F469C008958533910509F455C08933B6
:100B60009105B9F00895833E910569F138F4803E0E
:100B70009105B1F0823E910509F10895863E9105F7
:100B8000A9F1873E9105B9F1843E910509F064C051
:100B900023C02091FF0120FD4FC021FD4DC00895CD
:100BA0008091FF0180FD44C08091000280FF44C01D
:100BB0008091FF0184FD42C083EE4DC08091FF0112
:100BC00082FF38C0F5CF8091FF0182FD33C0809154
:100BD000000280FD31C0ECCF8091000281FF32C065
:100BE0008091FF0184FD2AC087EE35C08091FF010E
:100BF00083FF26C0F5CF8091FF0183FD21C0809146
:100C0000000281FD1FC0ECCF8091FF0185FD1CC05B
:100C10001DC08091FF0185FD19C016C08091FF01A4
:100C200086FD16C017C08091FF0186FD13C010C05D
:100C300089E311C082EE0FC080EE0DC080E00BC0D2
:100C400086EE09C084EE07C089E205C085E303C0D3
:100C50008AE201C081E390E008959091FF0192FF44
:100C60000DC0282F2871283019F4877F846006C0B2
:100C7000282F2471243011F48B7F886093FF0DC0DE
:100C8000282F2871283119F4877E846106C0282F07
:100C90002471243111F48B7E88612091000220FFA1
:100CA0000DC0382F3871383019F4877F816006C045
:100CB000382F3171313011F48E7F886021FF0DC0E3
:100CC000282F2871283119F4877E816106C0282FCA
:100CD0002171213111F48E7E886194FD877E089503
:100CE000AF92BF92CF92DF92EF92FF920F931F933A
:100CF000CF93DF937C015B01C42FD22FFC01828153
:100D00008823F9F0409362010E94171690936101C5
:100D10008093600180E28C0F883008F06EC0C7704D
:100D200081E001C0880FCA95EAF7DF91CF911F914A
:100D30000F91FF90EF90DF90CF90BF90AF900C9409
:100D4000410C80916201481335C0809160019091FF
:100D500061010E9423166C01B701C5010E945B115D
:100D6000C816D90638F510E21D0FCD17B9F080E28C
:100D70008C0F883040F4C77081E001C0880FCA959D
:100D8000EAF70E94480C183058F581E09D2F9770C3
:100D900001C0880F9A95EAF70E94410C802F0E94AB
:100DA0002E0C183050F5D77081E001C0880FDA950D
:100DB000EAF70AC080E28C0F8830F8F4C77081E04F
:100DC00001C0880FCA95EAF7DF91CF911F910F916B
:100DD000FF90EF90DF90CF90BF90AF900C94480CB5
:100DE000802FDF91CF911F910F91FF90EF90DF90B7
:100DF000CF90BF90AF900C942E0CDF91CF911F91AC
:100E00000F91FF90EF90DF90CF90BF90AF9008953B
:100E10000F939C01CB01233F4CE5340731F188F45B
:100E2000283DFCE53F07D9F0293D4CE5340779F131
:100E3000273D3C45A9F506E221EE41EE67ED7CE554
:100E40002BC0253FFCE53F07E1F0A8F0263F3C45DD
:100E500039F507E225EE46EE66EF7CE51DC007E2B8
:100E600025EE45EE68ED7CE517C006E221EE40EE8A
:100E700063EF7CE511C007E225EE44EE64EF7CE50C
:100E80000BC006E221EE42EE65EF7CE505C008E20C
:100E900021E045EE69ED7CE50E94700680E008C027
:100EA000FC018281882319F01092620101C081E067
:100EB0000F910895CF93DF93EC01FB01828188238A
:100EC00009F41FC1C230FCE5DF0708F41BC1C631BD
:100ED0009CE5D90738F09E012A5F3C452930310551
:100EE00008F010C10E94AD14909300028093FF019E
:100EF000C031ECE5DE0709F4C3C008F041C0C830DA
:100F00008CE5D80709F49AC0F0F4C430ECE5DE07AC
:100F100009F487C068F4C2308CE5D80709F477C0BB
:100F2000C330DC4509F0E3C08091FF01826076C0E8
:100F3000C630ECE5DE0709F46EC008F07BC0809196
:100F4000FF0188606BC0CC308CE5D80709F485C000
:100F500068F4CA30ECE5DE0709F474C008F079C023
:100F60000E94A20E8091FF01806858C0CE308CE5AF
:100F7000D80709F476C008F07FC08091FF018BC0CC
:100F8000CB3FECE5DE0709F44FC018F5C3318CE523
:100F9000D80709F47DC078F4C131ECE5DE0709F427
:100FA00073C0C231DC4509F0A2C00E94A20E80913C
:100FB000FF018F7733C0C5318CE5D80709F472C0C3
:100FC00008F486C0CA3FDC4509F091C08091000258
:100FD0003EC0CF3FFCE5DF0709F45FC058F4CD3FCA
:100FE0009CE5D90709F444C008F43FC08091000291
:100FF00082602DC0C130FDE5DF0709F475C008F43B
:101000005DC0C230DD4509F072C080E06EC08091E5
:10101000FF01816003C08091FF0180618093FF0127
:1010200066C08091FF0111C08091000282608093B0
:1010300000025DC08091FF018062F0CF8091FF01CE
:101040008064ECCF8091FF0188608460E7CF81608D
:10105000EECF8091FF018E7FE1CF8091FF018D7FE8
:10106000DDCF8091FF01877FD9CF8091000218C02A
:10107000809100028D7FDBCF8091FF018F7ECECFEC
:101080008091FF018F7DCACF8091FF018F7BC6CFFA
:101090008091FF01877F8B7FC1CF809100028D7F80
:1010A0008E7FC5CF8091FF0182FB222720F991E03E
:1010B000922790FB82F990FB83F9B0CF80910002D8
:1010C000982F909591708E7F892B90FB81F9AFCFEF
:1010D0000E94A20E8091FF0187FB222720F991E058
:1010E000922790FB87F99ACF81E00E943C1580916E
:1010F000FF01909100020E94BE140E94A20E80E0A7
:1011000001C081E0DF91CF910895CF93DF938631C5
:101110009C4541F5EB010E94F613982F8A8120919E
:101120001C0130911D01882379F09A7A81E009F43D
:1011300080E080936301911102C069E201C065E320
:10114000C9010E9483150AC080916301811102C008
:1011500069E201C065E3C9010E9485150E94371448
:1011600080E001C081E0DF91CF9108958EE14A9B3C
:1011700002C08150E1F74A9BFECF08955A9880E261
:101180008A95F1F75A9A0895FC012AE02A95F1F719
:1011900090E020E080E031E0261779F040E14A95C8
:1011A000F1F7880F4A9B02C08160932700C00000BE
:1011B00040E14A95F1F72F5FEFCF20E12A95F1F753
:1011C00029B100C0000030E13A95F1F722FB222757
:1011D00020F992272081920F90830895EF92FF9239
:1011E0000F931F93CF93DF931F92CDB7DEB7198272
:1011F0008C017C01E60EF11C0E151F0559F00E94B2
:10120000B60868E0CE0101960E94C408F8018193F7
:101210008F01F2CF81E09981911180E00F90DF91F1
:10122000CF911F910F91FF90EF90089590936601D9
:101230008093650160936401529A5A9A089590933D
:101240006601809365016093640152985A9AEA9A04
:10125000E9E6F0E080818F7C80830895615091E021
:1012600001C0990F6A95EAF720E031E0992361F017
:10127000492F482319F05A9A232701C05A9840E26F
:101280004A95F1F79695F2CF222311F05A9A01C0B0
:101290005A9880E28A95F1F75A980895FF920F9331
:1012A0001F93CF93DF93EC018C01060F111DC01724
:1012B000D10741F0F9900E94BE0868E08F2D0E948E
:1012C0002E09F5CFDF91CF911F910F91FF900895D7
:1012D0001F920F920FB60F9211240F931F932F930B
:1012E0003F934F935F936F937F938F939F93AF93AE
:1012F000BF93EF93FF93CF93DF931F92CDB7DEB7EA
:1013000019820E94B60867E0CE0101960E94C408C7
:10131000382F369536953695932F96959570232FC1
:101320002570920F292F2370969596958770920FAE
:10133000891348C08981811145C080916401831758
:1013400008F440C080E18A95F1F75A9A529AA2E0D7
:10135000AA95F1F700C00091650110916601B8E00F
:101360003B9F000D111D11245A98F80165816623D9
:1013700021F0868197810E944E090E94BE08F0E10B
:10138000FA95F1F75A9852985A9A80E18A95F1F7AE
:10139000D80112966C911297662369F013968D917D
:1013A0009C9114970E94EE08D801ED91FC91811157
:1013B00005C082E004C0D801ED91FC9188E08083F3
:1013C0000E94B6080F90DF91CF91FF91EF91BF91EE
:1013D000AF919F918F917F916F915F914F913F91CD
:1013E0002F911F910F910F900FBE0F901F90189586
:1013F0000F931F93CF93DF932091640130E0281760
:1014000039070CF471C09C0193E0220F331F9A95A9
:10141000E1F7C0916501D0916601C20FD31FF89426
:10142000529A5A9845E04A95F1F70000982F969500
:1014300095708570890F982F937086958695890F82
:101440008901082B0E94BE0884E08A95F1F700C04C
:1014500067E0802F0E942E0940E14A95F1F75298EB
:101460005A9A4A9902C000C0FCCF87E090E04A9B9C
:101470000EC0019751F4529A5A9AE881F98181E09D
:101480008083789481E090E031C000C0F0CF6D811E
:10149000662381F08E819F810E94EE0881110AC02F
:1014A000529A5A9AE881F98182E08083789482E0A6
:1014B00090E01CC00E94B60880E28A95F1F75A9825
:1014C000529A40E14A95F1F76A81662321F08B81B7
:1014D0009C810E944E090E94BE08E881F981108219
:1014E000789480E090E002C084E090E0DF91CF91BA
:1014F0001F910F91089590936C0180936B01089553
:10150000E0916B01F0916C01309721F00190F08136
:10151000E02D099480E00895E0916B01F0916C0159
:10152000309721F00280F381E02D09940895E09135
:101530006B01F0916C01309739F022E0DC012C93C3
:101540000480F581E02D099408952091690130917E
:101550006A012817390771F090936A018093690135
:10156000E0916B01F0916C01309721F00680F781DA
:10157000E02D0994089520916701309168012817A2
:10158000390771F09093680180936701E0916B01D6
:10159000F0916C01309721F00084F185E02D0994E1
:1015A000089585B7806885BF85B7806885BF089531
:1015B00008950C94D80A0C94D90A0C94D80A0C9467
:1015C000D80A0E94D10A0E94DD0A0C94DB0A81E04D
:1015D00008950C94E70A0E940E160E94EC010E94E6
:1015E00069160C94DF0AAF92BF92CF92DF92EF920E
:1015F000FF920F931F93CF93DF93CDB7DEB72A9758
:101600000FB6F894DEBF0FBECDBF0E9407030E9445
:10161000E90A811111C08FEF89838A831B820E949E
:1016200017168160782F9D838C8349815A816B8145
:101630008D810E948B0B40C08EE6A82E81E0B82ED3
:1016400000E010E0C02E802F0E947003E82EF5010C
:10165000D1905F01D82631F40F5F1F4F083011057C
:1016600089F7D9CF8091E20181FD0E94760380E065
:10167000FF24F3949D2D9F21D1F08E83CF82EF2004
:1016800081E009F480E088870E9417168160782F36
:101690009A8789874E815F8168858A850E948B0B36
:1016A000F801E259FE4F8081F826F08205C08F5F75
:1016B000FF0C8630F9F6D0CF0E9418180E94800ADD
:1016C00090916D018917B1F00E94800A80936D019D
:1016D0002A960FB6F894DEBF0FBECDBFDF91CF9133
:1016E0001F910F91FF90EF90DF90CF90BF90AF9040
:1016F0000C9453042A960FB6F894DEBF0FBECDBFEC
:10170000DF91CF911F910F91FF90EF90DF90CF90DD
:10171000BF90AF900895CF93DF93CDB7DEB72B97EF
:101720000FB6F894DEBF0FBECDBF4F8358876987D1
:101730007A878B87DE01119686E0FD0111928A95EA
:10174000E9F785E0FE01379601900D928A95E1F761
:1017500049815A816B817C818D819E810E945E11BD
:101760002B960FB6F894DEBF0FBECDBFDF91CF91A1
:101770000895FC01808191810E94B7130895CF9351
:101780008823B1F1C82F8CEF8C0F813AD0F46C2FE5
:1017900080911C0190911D010E944D15882349F0F4
:1017A0006C2F80911C0190911D010E9485150E9453
:1017B00037146C2F80911C0190911D010E9483159C
:1017C0000CC080E28C0F883058F4C77081E001C0F3
:1017D000880FCA95EAF70E94F913CF910C94371439
:1017E000C03F30F08C2F0E940D17CF910C94FA1748
:1017F000CF910895882389F19CEF980F913A40F496
:10180000682F80911C0190911D010E9485150DC0CB
:1018100090E2980F983058F4877091E001C0990FCA
:101820008A95EAF7892F0E94FF130C9437149BE5E1
:10183000980F933020F480E090E00C94A50A98E58E
:10184000980F973120F480E090E00C94BB0A803F21
:1018500020F00E9475170C94FA170895CF93C82FA3
:101860000E94BF0BC93349F42FEF87EE93E021505C
:1018700080409040E1F700C000008C2FCF910C9485
:10188000FA0B882321F00E94F9130C943714089561
:10189000882321F00E94FF130C9437140895CF92EF
:1018A000DF92EF92FF920F931F93CF93DF937C0110
:1018B000D62FC72FFC01058102950F7012811111DF
:1018C0000E9416140E94EF13882399F0112389F0C7
:1018D0008C2F807F803421F080E28D0F883048F09B
:1018E00082E00E9481140E94EF1391E0D82ED92645
:1018F00001C0D12CCC2EC2948FE0C8228C2D90E058
:101900008C30910508F098C1FC01EA5AFF4F0C9405
:10191000CD1F8C2F807FCF70882311F0C295C07FA0
:10192000112399F0CC2309F473C180E28D0F883024
:1019300010F0D11104C08C2F0E94F91303C08C2F1A
:101940000E9409140E94371463C18D2F0E94FA0B64
:10195000CC2309F471C180E28D0F883010F0D111D1
:1019600004C08C2F0E94FF1303C08C2F0E940F1401
:101970000E94371461C18C2F807FCF70803211F0AC
:10198000C295C07FDD2319F0D130C9F022C01123E8
:1019900071F0002341F0013031F40E941C148C2BB3
:1019A0000E94241449C10E941C148C2B1DC00023CA
:1019B00019F0013009F440C10E942D1425C01123F3
:1019C00021F0063008F038C10EC0053008F034C1EF
:1019D0001BC0112361F0002331F0F701858180FFE6
:1019E00017C18F7085838C2F0E94410C25C1002365
:1019F00059F0D93309F01DC1FFEF07EE13E0F150A4
:101A000000401040E1F713C18C2F0E94480C14C114
:101A10008D2F112319F00E940D1702C00E94751717
:101A20000E94FA1711C18C2F837009F047C0111161
:101A300007C12D2F229526952770220F220F6D2F7B
:101A40006F70862F90E0A0E0B0E0022E04C0880FF7
:101A5000991FAA1FBB1F0A94D2F7D4FF10C04FE0F2
:101A600050E060E070E004C0440F551F661F771F10
:101A70002A95D2F7409550956095709503C040E047
:101A800050E0BA01C695C695C3708A019B01082B28
:101A9000192B2A2B3B2BC901B801C23049F058F44D
:101AA000C13019F00E943212CBC00E942012C8C06F
:101AB0000E944412C5C00E941E12C2C0112319F018
:101AC0008C2F817001C08695882309F4B9C02D2F11
:101AD000229526952770220F220F6D2F6F70862F6B
:101AE00090E0A0E0B0E0022E04C0880F991FAA1F6A
:101AF000BB1F0A94D2F7D4FF10C04FE050E060E063
:101B000070E004C0440F551F661F771F2A95D2F757
:101B1000409550956095709503C040E050E0BA0143
:101B2000C695C695C3708A019B01082B192B2A2BD9
:101B30003B2BC901B801C23049F058F4C13019F04B
:101B40000E94F7127DC00E94E5127AC00E9409131C
:101B500077C00E94581274C0CF70112339F08C2FB7
:101B60000E947E128D2F0E94410C6AC08D2F0E9410
:101B7000480C8C2F0E949F1263C0D23F01F128F4C1
:101B8000D03F41F0D13FA1F03FC0D33FF9F0D43F67
:101B900039F13AC0112341F0053008F04DC08C2FC7
:101BA0008F710E94C41248C0063008F045C0F7CFBC
:101BB000112339F08C2F8F710E947E123DC01123AA
:101BC000C9F38C2F8F710E949F1236C0112329F008
:101BD0008C2F8F710E9469122FC00E9464122CC03A
:101BE000112349F0CF718C2F0E947E1263E08C2F5D
:101BF0000E946C1421C081E00E9481140230E0F048
:101C000082E00E94811418C0112331F0002391F268
:101C10008D2F0E94BF0B10C0002399F2D93349F4D5
:101C20001FEF27EE33E0115020403040E1F700C0B5
:101C300000008D2F0E94FA0B88EF8C0D843020F469
:101C40000E94800A0E945304DD20C9F00E94EB1319
:101C500080FD15C0F70112820E94E5130E947E12DA
:101C6000C7010E94600E0E94E513DF91CF911F9182
:101C70000F91FF90EF90DF90CF900C949F12DF9127
:101C8000CF911F910F91FF90EF90DF90CF9008952B
:101C90000F931F93CF93DF93EC01688179818A8141
:101CA0000E94C2138C010E941B130E940C12B801E7
:101CB000CE010E944F0CDF91CF911F910F9108959B
:101CC000CF93DF93EC01988189812B813C81232B79
:101CD00031F08F3F31F481E09F3F19F403C081E080
:101CE00001C080E080FD19C0CE010E946C0481110A
:101CF0000CC00E94EF13882381F08A81882369F049
:101D000082E0DF91CF910C948114CE010E94480EA5
:101D1000CE01DF91CF910C943704DF91CF910895DC
:101D20000E9416140E9419140E9437140E942B1945
:101D30000C94FA1780911C0190911D010E94871547
:101D40000C94900E0E9406140C949A0EE92FE295C2
:101D5000EF704E2F50E0FA013297EE30F105B0F4FB
:101D6000EE59FF4F0C94CD1F803F91F018F4883E40
:101D700068F40EC0843F51F40BC0883E48F0813FA8
:101D800029F406C093FB882780F9089580E0089520
:101D900081E008950E94B7130E94A60E0895CF9384
:101DA000DF9300D000D01F92CDB7DEB70F900F9019
:101DB0000F900F900F90DF91CF910895CF93DF9305
:101DC00000D000D000D0CDB7DEB726960FB6F8947D
:101DD000DEBF0FBECDBFDF91CF9108951F93CF938C
:101DE000DF93C091770116E080917801C81799F0D0
:101DF000D0E01C9FF0011D9FF00D1124E758FE4F0D
:101E00004081518162817381848195810E94DE0EBF
:101E10002196C770E9CFDF91CF911F91089540912E
:101E2000A9015091AA016091AB017091AC01809120
:101E3000AD019091AE010C94DE0E0F931F93CF93E2
:101E4000DF938091AE0182958F7009F05DC0809123
:101E5000AB01882309F458C0809177011091780173
:101E60006091A9017091AA01C091AC01D091AD011E
:101E700091E06F3F09F090E0292F06E0811709F407
:101E800043C0209721F07F3F21F030E003C031E0D4
:101E900001C0322F90E030FD34C0089FF001099F4F
:101EA000F00D1124DF01A758BE4F11963C911197F8
:101EB000371327C03C91361324C012963C911297D9
:101EC00031111FC013964D915C9114974C1B5D0B03
:101ED000483C5105B0F48091AE018F7080618093D1
:101EE000AE01E258FE4F80818F708061808389EA65
:101EF00091E00E94600EDF91CF911F910F910C94A1
:101F0000EE0E01968770BACFDF91CF911F910F919E
:101F100008959F92AF92BF92CF92DF92EF92FF927D
:101F20000F931F93CF93DF93CDB7DEB761970FB6B3
:101F3000F894DEBF0FBECDBF8C0185E0F801DE0155
:101F40001D9601900D928A95E1F7F801408151812B
:101F5000E2809091A9016091AA012091AC01309199
:101F6000AD012115310531F06F3F31F481E09F3F24
:101F700019F403C081E001C080E0F82FF1709F2EBA
:101F800080FD46C1F801A380B48089EAC82E81E0B3
:101F9000D82EF090AB01F501E21BF30BFF2009F402
:101FA000DFC08091AE01E83CF10508F09BC0282F0E
:101FB000207F09F052C0561313C0491311C0FE2CE4
:101FC000E1100EC08F7080618093AE010E940F0FF0
:101FD000C6010E94600E8091AE01F801858358C150
:101FE000AB2831F05F3F31F481E04F3F19F403C07B
:101FF00081E001C080E080FD03C081E08E2502C049
:1020000080E090E0F82FF170FF2E80FF1CC08091DF
:1020100077012091780136E0821709F417C190E02A
:10202000389FF001399FF00D1124E758FE4F618170
:10203000561306C06081461303C06281E61203C0D6
:1020400001968770E9CFFE2CEE2009F421C1809122
:10205000AE0181608093AE015AC0561306C0491389
:1020600004C0E11002C0F8019FC04D875E878D85D6
:102070009E850E94CA0E882379F1EE2069F1209195
:10208000AE01822F82958F7090E0029774F080915C
:10209000A9019091AA0198878F831986BB86AA8689
:1020A0002C87CE0107960E94600E86E0F801A9EA0F
:1020B000B1E001900D928A95E1F70E941D0F0E94F8
:1020C0000F0F0DC0561729F14D875E878D859E85B0
:1020D0000E94CA0E81112CC0C8010E94600EFF240C
:1020E000F394D6C0282F207F69F77A2DB98AA88A61
:1020F0006E2D89890E94CF0E89EA91E00E94600EC0
:1021000086E0F60111928A95E9F70E940F0FF12CF3
:10211000BFC04913D9CFE110D7CFF8018583C801DB
:102120000E94600E86E0F60111928A95E9F7B0C030
:10213000EE2091F22091AE01822F82958F7090E077
:1021400002970CF4B2CF8091A9019091AA019A83D1
:1021500089831B82BD82AC822E83CE010196A3CFE0
:10216000E83CF10508F047C0FE2CEE2009F4B4CF9E
:10217000561330C049132EC02091AE0120FD21C05E
:10218000822F82958F70482F50E041155105C9F07C
:10219000F80125834F30510541F08F5F982F9295BC
:1021A000907F822F8F70892B8583C8010E94600EDB
:1021B00086E0F801A9EAB1E001900D928A95E1F775
:1021C00042C086E0F801A9EAB1E001900D928A953B
:1021D000E1F75EC04D875E878D859E850E94CA0EA1
:1021E000811163CF8091AE0181608093AE01C801FF
:1021F0000E94600E4DC07A2DB98AA88A6E2D8989F9
:102200000E94CF0E86E0F60111928A95E9F71BC075
:10221000EE2009F461CF4D875E878D859E850E94F3
:10222000CA0EF82E882309F457CF86E0F801A9EAF0
:10223000B1E001900D928A95E1F789EA91E00E9460
:10224000B90B0E941D0F0E940F0F22C04D875E87A1
:102250008D859E850E94B713292F22952F702230DD
:1022600028F49F7039F0811105C00BC0243028F488
:102270009F7049F4805E883020F0C8010E94600E93
:102280009F2CF92C05C0F8019581907F99F7F9CF23
:102290008F2D61960FB6F894DEBF0FBECDBFDF91D4
:1022A000CF911F910F91FF90EF90DF90CF90BF9053
:1022B000AF909F90089588EC90E008951F93CF937E
:1022C000DF93CDB7DEB72C970FB6F894DEBF0FBE05
:1022D000CDBF4F83588769877A878B879C87CE01CC
:1022E00007960E94890F8823D1F09F8188852A85CF
:1022F0003B85232B31F08F3F31F481E09F3F19F470
:1023000003C081E001C080E080FD47C04F81588557
:1023100069857A858B859C850E94DE0E3EC086E0AD
:10232000FE013796DE01119601900D928A95E1F734
:10233000FF81E8856A857B856115710531F0EF3F86
:1023400031F481E0FF3F19F403C081E001C080E077
:1023500080FD23C02091780130E0C901019687708B
:1023600099274091770150E084179507F1F1F9839F
:10237000EA837D836C8396E0929FD001939FB00D9A
:102380001124A758BE4FFE01319601900D929A95E7
:10239000E1F7809378010E94EE0E16E080917701BC
:1023A00090917801891771F1189FC0011124875805
:1023B0009E4F0E94890F882329F1E09177011E9F8B
:1023C000F0011124E758FE4F4081518162817381F1
:1023D000848195810E94DE0E8091770190E00196C4
:1023E0008770992780937701D9CF0E94A20E10920F
:1023F000780110927701E9EAF1E086E0DF011D92B1
:102400008A95E9F72C960FB6F894DEBF0FBECDBFC4
:10241000DF91CF911F910895089508950C940D12A6
:102420000C940E120E9410126093D1017093D2018D
:102430008093D3019093D4010C94900E0C941212BB
:102440000F931F930091D1011091D2012091D301DC
:102450003091D401602B712B822B932B1F910F9104
:102460000C9412120F931F930091D1011091D2017D
:102470002091D3013091D4016023712382239323CF
:102480001F910F910C9412120F931F930091D10181
:102490001091D2012091D3013091D401602771278E
:1024A000822793271F910F910C9412120C940D12F6
:1024B0000E9456126093CD017093CE018093CF019C
:1024C0009093D0010C94900E60E070E0CB010C94DE
:1024D00058120F931F9341E050E060E070E08A01D2
:1024E0009B0104C0000F111F221F331F8A95D2F7D2
:1024F000C901B8011F910F910C9458120F931F93AB
:1025000041E050E060E070E004C0440F551F661FDA
:10251000771F8A95D2F78091CD019091CE01A0913D
:10252000CF01B091D0018A019B01082B192B2A2BD6
:102530003B2BC901B8011F910F910C9458120F93B6
:102540001F9341E050E060E070E004C0440F551F6D
:10255000661F771F8A95D2F74095509560957095C4
:102560008091CD019091CE01A091CF01B091D00189
:102570008A019B01082319232A233B23C901B8019F
:102580001F910F910C9458120F931F9341E050E04C
:1025900060E070E004C0440F551F661F771F8A95E6
:1025A000D2F78091CD019091CE01A091CF01B09151
:1025B000D0018A019B01082719272A273B27C90137
:1025C000B8011F910F910C9458120F931F93009113
:1025D000CD011091CE012091CF013091D001602B1F
:1025E000712B822B932B1F910F910C9458120F93E8
:1025F0001F930091CD011091CE012091CF01309118
:10260000D00160237123822393231F910F910C9497
:1026100058120F931F930091CD011091CE0120917C
:10262000CF013091D00160277127822793271F9116
:102630000F910C9458120895292F220F920F990F81
:10264000890FE82FE695E695E695877051E001C081
:10265000550F8A95EAF785E0E89FF0011124E155CE
:10266000FE4F20E030E070E04081CB01022E02C03E
:10267000969587950A94E2F7817081958427852342
:10268000842781932F5F3F4F2530310569F70895E7
:10269000292F220F920F990F890F682F6695669543
:1026A0006695982F977085E0689FB001112440E0EF
:1026B00050E080E0FB01E40FF51FE155FE4F208163
:1026C00030E0092E02C0369527950A94E2F7217072
:1026D0003327042E01C0220F0A94EAF7822B4F5FA2
:1026E0005F4F4530510531F70895BF92CF92DF9289
:1026F000EF92FF920F931F93CF93DF938C01C090C3
:10270000CD01D090CE01E090CF01F090D00180912A
:10271000D1019091D201A091D301B091D401C82AE6
:10272000D92AEA2AFB2ACFE1D0E0D701C6010C2E34
:1027300004C0B695A795979587950A94D2F780FD22
:1027400004C0219790F7B12C07C0BC2EB8018C2F84
:102750000E94BC040197A9F38B2DDF91CF911F91AB
:102760000F91FF90EF90DF90CF90BF900895CF939F
:10277000DF93EC010E947513BE010E94BC04DF913F
:10278000CF9108951F93CF93DF93EB019091760142
:10279000992321F0CB010E94B71313C0882349F07D
:1027A000CB010E947513182F682FCE010E941C13B5
:1027B00004C0CB010E944813182FBE01812F0E9434
:1027C000BC04DF91CF911F9108958091D50185952B
:1027D0008595859508958091D5018770089590918C
:1027E000D501977081E009F480E008958091E101BE
:1027F00008959091E101892B8093E10108958095DE
:102800009091E10189238093E10108951092E10103
:1028100008959091E001892B8093E00108958095BF
:102820009091E00189238093E00108951092E001E6
:1028300008951092DF0108958091D60108950895BA
:102840000C941F140C9420149091D601981721F029
:102850008093D6010C94221408958091D601882388
:1028600029F01092D60180E00C9422140895E09192
:102870001C01F0911D018091E1018083E0911C0118
:10288000F0911D0190818091E001892B8083E0917E
:102890001C01F0911D0190818091DF01892B8083C3
:1028A0008091D601882381F0E0911C01F0911D01F7
:1028B0009081892B808380911C0190911D010E9441
:1028C000411581110E942D1480911C0190911D01D0
:1028D0000C948C0A0C941F1498E0899F9001112489
:1028E000262B2093D5010E947E128091D5018595DB
:1028F000859585950C946A141092D50180E00C940E
:102900006A142091D501809582238093D501982F58
:10291000977079F430E0482F082E000C550B2417DF
:10292000350739F08595859585950E949F120C9401
:102930007C14089580E090E00E94FC1F21E08C3E12
:102940009E4F09F020E0822F089582E090E00C94E1
:10295000F41F83E090E00C94F41FCF9384E090E0A8
:102960000E94F41FC82F81E290E00E94F41F2C2FD8
:1029700030E0A901582BCA01CF910895CF93C92FF8
:10298000682F84E090E00E9402206C2F81E290E0AA
:10299000CF910C940220AB01BC018FE090E00C942D
:1029A0001420AB01BC0183E190E00C94142060E0A2
:1029B00070E0CB010C94D11460E070E0CB010E9478
:1029C000CB140C94D7146CEE7EEF80E090E00E9464
:1029D000202060E082E090E00E94022060E083E03E
:1029E00090E00E9402201092D1011092D201109228
:1029F000D3011092D40160E084E090E00E940220B4
:102A000060E081E290E00E94022060E085E090E0DA
:102A10000E94022060E086E090E00E9402206FEFBA
:102A200087E090E00E94022040E050E0BA0188E098
:102A300090E00E94142060E08DE090E00E9402206F
:102A400040E050E0BA0188E190E00E94142060E08C
:102A500087E190E00E94022040E050E0BA018CE162
:102A600090E00E94142060E080E290E00E9402204A
:102A70000C94DC140C94E314682F8EE090E00C941A
:102A80000220FC01329697E080E0915029F02191DC
:102A90002223D9F38F5FF9CF0895662349F0FC0113
:102AA000329608962191621729F0E817F907D1F7B5
:102AB00080E0089581E008959C01FC0132969FEF2B
:102AC00080E04191461789F09F3F19F4411101C000
:102AD000982F8F5F8630A9F79F3F39F0F901E90FF2
:102AE000F11D97FDFA956283089508959C012A5F70
:102AF0003F4FFC014281461301C0128201968217AA
:102B00009307B9F708950C945C150C94761502960A
:102B100026E0FC0111922A95E9F7089508950C9496
:102B20008E150C948E15CF930E9491150E94070369
:102B30000E948F15C0E08C2F0E947003811104C089
:102B4000CF5FC830C1F701C081E0CF9108950C94E8
:102B50008E150C94A7150E94A9158091050284304A
:102B600049F11092E30120E488E190E00FB6F89477
:102B7000A895809360000FBE2093600080E00E94C3
:102B800053040E94A91583B7817F846083BF83B7F4
:102B9000816083BF7894889583B78E7F83BF0FB69B
:102BA000F894A895809160008861809360001092ED
:102BB00060000FBE08950C948E150E94A20E0E9414
:102BC000800A0E9453040C94DB151F920F920FB6DB
:102BD0000F9211248F939F93AF93BF938091E30142
:102BE000811113C08091FB019091FC01A091FD0126
:102BF000B091FE014196A11DB11D8093FB01909300
:102C0000FC01A093FD01B093FE01BF91AF919F9194
:102C10008F910F900FBE0F901F90189582E084BD8A
:102C200093E095BD9AEF97BD80936E0008952FB7FE
:102C3000F8948091FB019091FC01A091FD01B0916D
:102C4000FE012FBF08959C014FB7F8948091FB01BE
:102C50009091FC01A091FD01B091FE014FBF821B3C
:102C6000930B089578941F920F920FB60F92112430
:102C70008F939F93AF93BF938091FB019091FC0141
:102C8000A091FD01B091FE010196A11DB11D80939F
:102C9000FB019093FC01A093FD01B093FE01BF9155
:102CA000AF919F918F910F900FBE0F901F9018952D
:102CB00087E797E790930108809300089AE088E1FE
:102CC0000FB6F894A895809360000FBE90936000B3
:102CD000FFCF0E949A14811102C00E943A150E94EF
:102CE000A5148093E2010E94AD149093000280939A
:102CF000FF010E94A914682F70E080E090E00E941C
:102D00001E126091CD017091CE018091CF01909102
:102D1000D0010C9456128091EA0180FF0BC06091A3
:102D2000230185E0689FB00111247595679575951D
:102D300067952BC081FF09C06091230185E0689FE2
:102D4000B00111247595679520C082FF07C060917E
:102D5000230185E0689FB001112417C09091E9011B
:102D60009923D1F060912201961788F720912301D1
:102D700085E0289F90011124929FA001939F500D00
:102D8000112470E0CA010E94B91F6038710540F437
:102D90006115710519F406C065E070E0862F08958D
:102DA0008FE7089581E008958091EA0180FF08C0CF
:102DB00060911F0170E0759567957595679521C0C5
:102DC00081FF06C060911F0170E07595679519C07D
:102DD00082FF04C060911F0170E010C09091E80173
:102DE000992399F060911E019617A0F780911F0119
:102DF000899FC001112470E00E94B91F60387105DD
:102E000040F46115710519F406C061E070E0862F89
:102E100008958FE7089581E00895803F21F40E948E
:102E20008B16819504C0813F29F40E948B168093F4
:102E3000EE010895823F21F40E948B16819504C013
:102E4000833F29F40E948B168093ED010895893FFA
:102E500019F40E94D41605C08A3F31F40E94D4169A
:102E600081958093EF0108958B3F21F40E94D41641
:102E7000819504C08C3F29F40E94D4168093F00100
:102E80000895843F21F48091EC01816017C0853F53
:102E900021F48091EC01826011C0863F21F4809181
:102EA000EC0184600BC0873F21F48091EC018860C5
:102EB00005C0883F31F48091EC0180618093EC0182
:102EC00008958D3F21F48091EA0181600BC08E3F0F
:102ED00021F48091EA01826005C08F3F29F480913E
:102EE000EA0184608093EA010895803F39F480917B
:102EF000EE0187FF6AC01092EE0167C0813F29F49E
:102F00008091EE011816BCF360C09091ED01823FF4
:102F100029F497FF5AC01092ED0157C0833F19F46E
:102F20001916CCF352C09091EF01893F31F4191674
:102F30000CF04BC01092EF0148C08A3F19F497FF84
:102F400044C0F8CF8B3F39F48091F00187FF3DC03A
:102F50001092F0013AC08C3F29F48091F0011816CC
:102F6000BCF333C0843F21F48091EC018E7F17C005
:102F7000853F21F48091EC018D7F11C0863F21F4C3
:102F80008091EC018B7F0BC0873F21F48091EC0195
:102F9000877F05C0883F31F48091EC018F7E80935C
:102FA000EC0113C08D3F21F48091EA018E7F0BC0AC
:102FB0008E3F21F48091EA018D7F05C08F3F29F477
:102FC0008091EA018B7F8093EA018091ED0181116C
:102FD00006C08091EE01811102C01092E90180913A
:102FE000EF01811106C08091F001811102C01092A1
:102FF000E80108950E9417162091ED01211104C0E7
:103000002091EE01222321F09093E7018093E601C5
:103010002091EF01211104C02091F001222321F021
:103020009093E5018093E4018BEE91E00C94970A74
:10303000EF92FF920F931F93CF93DF9300D000D0B6
:1030400000D0CDB7DEB786E0EBEEF1E0DE01119601
:1030500001900D928A95E1F7E090ED01F090EE017C
:103060000091EF011091F0011092ED011092EE012C
:103070001092EF011092F001E11003C0FF2009F45B
:103080005DC08091E6019091E7010E942316AC019A
:103090009091E901992339F02091240130E024171F
:1030A000350758F04BC0209125018AE0289F9001F8
:1030B00011242417350718F041C09F3F19F09F5F76
:1030C0009093E901EE2061F00E948B161E1414F01B
:1030D0009FEF01C091E0989F902D11249093ED01F6
:1030E000FF2061F00E948B161F1414F09FEF01C0A7
:1030F00091E0989F902D11249093EE013091ED0175
:103100003323E1F02091EE012223C1F045EB34039B
:10311000C0011124992319F09093ED0103C081E0BF
:103120008093ED0135EB2303C0011124992319F09D
:103130009093EE0103C081E08093EE01011103C082
:10314000112309F45DC08091E4019091E5010E9492
:103150002316AC019091E801992339F020912001C8
:1031600030E02417350758F04BC0209121018AE048
:10317000289F900111242417350718F041C09F3F64
:1031800019F09F5F9093E801002361F00E94D4162C
:10319000101614F09FEF01C091E0989F902D11241C
:1031A0009093EF01112361F00E94D416111614F0D0
:1031B0009FEF01C091E0989F902D11249093F00112
:1031C0003091EF013323E1F02091F0012223C1F08F
:1031D00045EB3403C0011124992319F09093EF01BA
:1031E00003C081E08093EF0135EB2303C00111247C
:1031F000992319F09093F00103C081E08093F001CE
:103200008091ED0181110BC08091EE01811107C009
:103210008091EF01811103C08091F00181110E9422
:10322000FA17EB82FC820D831E8386E0FE01319645
:10323000ABEEB1E001900D928A95E1F726960FB6BC
:10324000F894DEBF0FBECDBFDF91CF911F910F91DC
:10325000FF90EF900895EBEEF1E086E0DF011D9224
:103260008A95E9F71092E9011092E8011092EA01BB
:1032700008958091F9010895089522E02093E900CE
:103280002FEF3091E800215035FD06C035ED3A951D
:10329000F1F700002111F5CF2091E80025FF0BC0C8
:1032A00040E050E066E070E00E941B1B8091E80067
:1032B0008E778093E8000895CF93DF9321E02093E9
:1032C000E9002FEF3091E800215035FD06C035EDC3
:1032D0003A95F1F700002111F5CF2091E80025FF84
:1032E00014C0EC0140E050E068E070E00E941B1B5D
:1032F0008091E8008E778093E80088E0FE01A1EFDE
:10330000B1E001900D928A95E1F7DF91CF91089598
:10331000089580910402811109C00E94AC1C0E9492
:10332000091D8091E20084608093E200089510926C
:1033300004020895089508950C94DD1542E061ECAF
:1033400081E00E94251C42E261EC82E00C94251C85
:1033500080910702833009F460C030F4813071F04D
:10336000823009F499C008958A3009F485C08B3001
:1033700009F46BC0893009F0A7C020C08091060213
:10338000813A09F0A1C08091E800877F8093E8002E
:1033900080910A0290910B02892B21F468E081EF61
:1033A00091E003C060E080E090E070E00E94661B66
:1033B0008091E8008B778093E80008958091060261
:1033C000813209F081C080910A0290910B0202972C
:1033D00008F07AC08091E800877F8093E8008091B0
:1033E000E80082FD05C0809105028111F8CF6CC014
:1033F0002091F3008091F20090E0922B029729F443
:103400008091F1008B7F813021F48091F1008093D5
:10341000F9018091E8008B7753C080910602813AD0
:1034200009F052C080910A0290910B02892B09F099
:103430004BC08091E800877F8093E8008091E8008E
:1034400080FFFCCF8091300136C08091060281322E
:10345000D9F580910A0290910B02892BA9F58091F0
:10346000E800877F8093E8000E945A1C8091080240
:10347000809330010C94A20E80910602813221F5D6
:103480008091E800877F8093E8000E945A1C809119
:1034900009028093FA01089580910602813AA1F40D
:1034A0008091E800877F8093E8008091E80080FFAA
:1034B000FCCF8091FA018093F1008091E8008E7733
:1034C0008093E8000C945A1C089584B7877F84BFCA
:1034D0000FB6F894A8958091600088618093600091
:1034E000109260000FBE90E080E80FB6F8948093D1
:1034F0006100909361000FBE0E94E10A0E94AC1C23
:103500000E94091D8091E20084608093E20078941B
:103510000E949E1F0E94EB0A86E291E00E947B0AB5
:1035200080910502853069F40E94AB1580910302F9
:103530008823B1F30E949315882391F30E94051B01
:10354000EFCF0E94F30AECCF0C94A61A292F332751
:1035500023303105C9F060F42130310581F022308B
:10356000310509F04AC08BE390E020E032E049C029
:103570002132310511F12232310579F13EC082E16B
:1035800090E02BE332E03DC099278130910561F056
:1035900040F08230910559F0039779F5E4EBF1E0C2
:1035A00008C0ECEFF1E005C0EAEEF1E002C0EAEBA2
:1035B000F1E0849190E09F0124C06115710541F014
:1035C00061307105D1F489E090E02BE232E019C05E
:1035D00089E090E022E132E014C06115710541F00C
:1035E0006130710551F48FE490E02DE432E009C0C0
:1035F00080E490E02CE932E004C080E090E020E03C
:1036000030E0FA0131832083089580E189BD82E1B1
:1036100089BD09B400FEFDCF8091D8008F7D8093D5
:10362000D8008091E00082608093E0008091E0000B
:1036300081FDFCCF0895CF92DF92EF92FF920F931E
:103640001F93CF93DF93EC018B017A010E94791CC9
:10365000811133C0E114F10439F0F70180819181C7
:10366000081B190BC80FD91FC12CD12C011511052E
:1036700019F18091E80085FD16C08091E8008E77F1
:103680008093E800E114F10449F0F7018081918111
:10369000C80ED91ED182C08285E00FC00E94791C5D
:1036A000882321F30AC089918093F1000150110908
:1036B000FFEFCF1ADF0ADACF80E0DF91CF911F91C1
:1036C0000F91FF90EF90DF90CF90089520910C0222
:1036D00030910D022617370748F06115710539F44E
:1036E0002091E8002E772093E80001C0B901FC0189
:1036F00020E06115710579F1809105028823F1F1CF
:103700008530F1F18091E80083FD3CC08091E800B4
:1037100082FD2EC08091E80080FFEBCF2091F30066
:103720008091F20090E0922B6115710551F0883084
:10373000910538F421912093F100615071090196AF
:10374000F3CF21E0089709F020E08091E8008E7720
:103750008093E800CECF2111CFCF0AC0809105021F
:10376000882361F0853061F08091E80083FD0AC014
:103770008091E80082FFF2CF80E0089582E0089512
:1037800083E0089581E0089520910C0230910D02AC
:103790002617370748F06115710539F42091E800C4
:1037A0002E772093E80001C0B901FC0120E06115EB
:1037B000710591F180910502882309F440C085309C
:1037C00009F43FC08091E80083FD3DC08091E8008E
:1037D00082FD2FC08091E80080FFE9CF2091F300A7
:1037E0008091F20090E0922B6115710559F08830BC
:1037F000910540F424912093F100319661507109B4
:103800000196F2CF21E0089709F020E08091E800CE
:103810008E778093E800CBCF2111CCCF0AC0809166
:103820000502882361F0853061F08091E80083FD16
:103830000AC08091E80082FFF2CF80E0089582E024
:10384000089583E0089581E00895982F973068F5F2
:103850009093E900981739F07091EC002091ED00F9
:103860005091F00003C0242F762F50E021FD02C0BC
:103870009F5FECCF3091EB003E7F3093EB003091B7
:10388000ED003D7F3093ED003091EB0031603093DF
:10389000EB007093EC002093ED005093F00020912A
:1038A000EE0027FDE5CF80E008958F708093E9005A
:1038B00081E008958091060287FF11C08091E800A1
:1038C00082FD05C0809105028111F8CF11C0809161
:1038D000E8008B770BC080910502882349F0809126
:1038E000E80080FFF8CF8091E8008E778093E800B1
:1038F00008952091E4003091E50095E64091EC00B8
:10390000842F817040FF23C08091E80080FD1DC09E
:1039100080910502882399F0853099F08091EB0021
:1039200085FD11C04091E4005091E5002417350752
:1039300029F3915011F09A01E1CF84E0089582E0DB
:10394000089583E0089581E0089580E0089540910E
:10395000E80042FFDDCF08950E941A1D0E94221D3B
:10396000E0EEF0E0808181608083E8EDF0E080812E
:103970008F77808319BCA7EDB0E08C918E7F8C93FC
:1039800080818F7E80831092040208950F931F938D
:10399000CF93DF930E941A1D0E94221DC8EDD0E034
:1039A00088818F77888388818068888388818F7DEC
:1039B000888319BC10920502109201021092030232
:1039C0001092020200EE10E0F80180818B7F80836C
:1039D00088818160888342E060E080E00E94251C4D
:1039E000E1EEF0E080818E7F8083E2EEF0E0808186
:1039F00081608083808188608083F80180818E7FF0
:103A00008083888180618883DF91CF911F910F919E
:103A10000895E8EDF0E080818F7E8083E7EDF0E0AF
:103A200080818160808384E082BF81E08093040292
:103A30000C94C61CE8EDF0E080818E7F80831092AC
:103A4000E20008951092DA001092E10008951F92AA
:103A50000F920FB60F9211242F933F934F935F93C2
:103A60006F937F938F939F93AF93BF93EF93FF9346
:103A70008091E10082FF0BC08091E20082FF07C0CD
:103A80008091E1008B7F8093E1000E949D1F8091D7
:103A9000DA0080FF1FC08091D80080FF1BC080919A
:103AA000DA008E7F8093DA008091D90080FF0DC00C
:103AB00080E189BD82E189BD09B400FEFDCF81E0CE
:103AC000809305020E94891905C019BC1092050255
:103AD0000E9497198091E10080FF19C08091E20057
:103AE00080FF15C08091E2008E7F8093E20080917C
:103AF000E20080618093E2008091D8008062809330
:103B0000D80019BC85E0809305020E949B19809122
:103B1000E10084FF30C08091E20084FF2CC080E18E
:103B200089BD82E189BD09B400FEFDCF8091D80036
:103B30008F7D8093D8008091E1008F7E8093E1009B
:103B40008091E2008F7E8093E2008091E2008160AC
:103B50008093E20080910102882311F084E007C085
:103B60008091E30087FD02C081E001C083E0809383
:103B700005020E949C198091E10083FF29C0809179
:103B8000E20083FF25C08091E100877F8093E10000
:103B900082E080930502109201028091E1008E7F05
:103BA0008093E1008091E2008E7F8093E20080911B
:103BB000E20080618093E20042E060E080E00E94E9
:103BC000251C8091F00088608093F0000E949A1973
:103BD000FF91EF91BF91AF919F918F917F916F91E5
:103BE0005F914F913F912F910F900FBE0F901F90BB
:103BF00018951F920F920FB60F9211242F933F9397
:103C00004F935F936F937F938F939F93AF93BF93E4
:103C1000CF93DF93EF93FF93C091E900CF70809132
:103C2000EC00D82FD17080FDD0E81092E90080918F
:103C3000F000877F8093F00078940E943D1E1092E0
:103C4000E9008091F00088608093F000CD2BCF7068
:103C5000C093E900FF91EF91DF91CF91BF91AF91B8
:103C60009F918F917F916F915F914F913F912F9194
:103C70000F900FBE0F901F9018951F93CF93DF9357
:103C8000CDB7DEB7AA970FB6F894DEBF0FBECDBF93
:103C9000E6E0F2E08091F100819322E0EE30F2075D
:103CA000C9F70E94A8198091E80083FF2EC1809176
:103CB000060290910702492F50E04A30510508F062
:103CC00024C1FA01E059FF4F0C94CD1F803821F038
:103CD000823809F01AC108C0809102029091030253
:103CE000992389F082600FC080910A028F7087301B
:103CF00008F00BC18093E9008091EB0085FB8827D9
:103D000080F91092E9009091E800977F9093E80085
:103D10008093F1001092F100D1C0282F2D7F09F07F
:103D2000F4C0882319F0823061F0EFC0809108025E
:103D3000813009F0EAC0933009F080E080930302FB
:103D40002EC08091080281112AC080910A028F70D2
:103D50002FEF280F263008F0D8C08093E90020917B
:103D6000EB0020FF1CC0933021F48091EB008062B7
:103D700014C09091EB0090619093EB0021E030E053
:103D8000A90102C0440F551F8A95E2F74093EA004B
:103D90001092EA008091EB0088608093EB00109213
:103DA000E9008091E800877F8093E8000E945A1C18
:103DB000ACC08111AAC0109108021F778091E30066
:103DC0008078812B8093E3008091E800877F809347
:103DD000E8000E945A1C8091E80080FFFCCF80918F
:103DE000E30080688093E300111102C082E001C00B
:103DF00083E08093050289C08058823008F085C036
:103E000080910802909109028C3D53E0950779F565
:103E100083E08A838AE289834FB7F894DE011396A0
:103E200020E03EE051E2E32FF0E050935700E491B0
:103E300020FF03C0E295EF703F5FEF708E2F90E0A0
:103E4000EA3010F0C79601C0C0968D939D932F5F06
:103E5000243149F74FBF8091E800877F8093E800C5
:103E60006AE270E0CE0101960E94661B16C0609166
:103E70000A0270910B02AE014F5F5F4F0E94A41ABD
:103E8000BC01892B09F441C09091E800977F909381
:103E9000E80089819A810E94C41B8091E8008B7799
:103EA0008093E80032C0803881F58091E800877FF8
:103EB0008093E800809101028093F1008091E800F6
:103EC0008E7772CF811121C08091080290910902F2
:103ED00099270297D4F48091E800877F8093E800C7
:103EE00080910802809301020E945A1C8091010275
:103EF000811106C08091E30087FD02C081E001C00E
:103F000084E0809305020E949E198091E80083FF5F
:103F10000AC08091E800877F8093E8008091EB00E1
:103F200080628093EB00AA960FB6F894DEBF0FBEB6
:103F3000CDBFDF91CF911F9108950895CF938091C8
:103F400005028823A1F0C091E900CF709091EC00A8
:103F5000892F817090FD80E8C82B1092E900809134
:103F6000E80083FD0E943D1ECF70C093E900CF9111
:103F7000089597FB072E16F4009407D077FD09D01B
:103F80000E94D31F07FC05D03EF4909581959F4F6A
:103F90000895709561957F4F0895EE0FFF1F05906E
:103FA000F491E02D0994AA1BBB1B51E107C0AA1F85
:103FB000BB1FA617B70710F0A61BB70B881F991FCA
:103FC0005A95A9F780959095BC01CD010895FB0104
:103FD000DC0104C08D910190801921F441505040C2
:103FE000C8F7881B990B0895F999FECF92BD81BD42
:103FF000F89A992780B50895A8E1B0E042E050E032
:104000000C942820262FF999FECF92BD81BDF89AF5
:10401000019700B4021639F01FBA20BD0FB6F8940C
:10402000FA9AF99A0FBE08950396272F0E9403204B
:104030000E940220252F0E940320242F0C9403208D
:104040000196272F0E9403200C940220DC01CB0153
:10405000FC01F999FECF06C0F2BDE1BDF89A319698
:1040600000B40D9241505040B8F70895F894FFCF36
:1040700005015701000000015501570104580101D5
:1040800055015601000000045C01FFFFD70128081C
:10409000641E140A321E39195C193D1988193C191D
:1040A00001F4F5F6F73133946697C600000000007E
:00000001FF
